{
  "_format": "hh-sol-artifact-1",
  "contractName": "SolveToken",
  "sourceName": "contracts/SolveToken.sol",
  "abi": [
    {
      "inputs": [
        {
          "internalType": "string",
          "name": "name",
          "type": "string"
        },
        {
          "internalType": "string",
          "name": "symbol",
          "type": "string"
        }
      ],
      "stateMutability": "nonpayable",
      "type": "constructor"
    },
    {
      "anonymous": false,
      "inputs": [
        {
          "indexed": true,
          "internalType": "address",
          "name": "owner",
          "type": "address"
        },
        {
          "indexed": true,
          "internalType": "address",
          "name": "spender",
          "type": "address"
        },
        {
          "indexed": false,
          "internalType": "uint256",
          "name": "value",
          "type": "uint256"
        }
      ],
      "name": "Approval",
      "type": "event"
    },
    {
      "anonymous": false,
      "inputs": [
        {
          "indexed": true,
          "internalType": "address",
          "name": "owner",
          "type": "address"
        },
        {
          "indexed": true,
          "internalType": "uint256",
          "name": "amount",
          "type": "uint256"
        }
      ],
      "name": "SolveBurned",
      "type": "event"
    },
    {
      "anonymous": false,
      "inputs": [
        {
          "indexed": true,
          "internalType": "address",
          "name": "owner",
          "type": "address"
        },
        {
          "indexed": true,
          "internalType": "uint256",
          "name": "amount",
          "type": "uint256"
        }
      ],
      "name": "SolveMinted",
      "type": "event"
    },
    {
      "anonymous": false,
      "inputs": [
        {
          "indexed": true,
          "internalType": "address",
          "name": "from",
          "type": "address"
        },
        {
          "indexed": true,
          "internalType": "address",
          "name": "to",
          "type": "address"
        },
        {
          "indexed": false,
          "internalType": "uint256",
          "name": "value",
          "type": "uint256"
        }
      ],
      "name": "Transfer",
      "type": "event"
    },
    {
      "inputs": [
        {
          "internalType": "address",
          "name": "owner",
          "type": "address"
        },
        {
          "internalType": "address",
          "name": "spender",
          "type": "address"
        }
      ],
      "name": "allowance",
      "outputs": [
        {
          "internalType": "uint256",
          "name": "",
          "type": "uint256"
        }
      ],
      "stateMutability": "view",
      "type": "function"
    },
    {
      "inputs": [
        {
          "internalType": "address",
          "name": "spender",
          "type": "address"
        },
        {
          "internalType": "uint256",
          "name": "amount",
          "type": "uint256"
        }
      ],
      "name": "approve",
      "outputs": [
        {
          "internalType": "bool",
          "name": "",
          "type": "bool"
        }
      ],
      "stateMutability": "nonpayable",
      "type": "function"
    },
    {
      "inputs": [
        {
          "internalType": "address",
          "name": "account",
          "type": "address"
        }
      ],
      "name": "balanceOf",
      "outputs": [
        {
          "internalType": "uint256",
          "name": "",
          "type": "uint256"
        }
      ],
      "stateMutability": "view",
      "type": "function"
    },
    {
      "inputs": [
        {
          "internalType": "uint256",
          "name": "amount",
          "type": "uint256"
        }
      ],
      "name": "burn",
      "outputs": [],
      "stateMutability": "nonpayable",
      "type": "function"
    },
    {
      "inputs": [],
      "name": "decimals",
      "outputs": [
        {
          "internalType": "uint8",
          "name": "",
          "type": "uint8"
        }
      ],
      "stateMutability": "view",
      "type": "function"
    },
    {
      "inputs": [
        {
          "internalType": "address",
          "name": "spender",
          "type": "address"
        },
        {
          "internalType": "uint256",
          "name": "subtractedValue",
          "type": "uint256"
        }
      ],
      "name": "decreaseAllowance",
      "outputs": [
        {
          "internalType": "bool",
          "name": "",
          "type": "bool"
        }
      ],
      "stateMutability": "nonpayable",
      "type": "function"
    },
    {
      "inputs": [],
      "name": "getTotalEtherInContract",
      "outputs": [
        {
          "internalType": "uint256",
          "name": "",
          "type": "uint256"
        }
      ],
      "stateMutability": "view",
      "type": "function"
    },
    {
      "inputs": [
        {
          "internalType": "address",
          "name": "spender",
          "type": "address"
        },
        {
          "internalType": "uint256",
          "name": "addedValue",
          "type": "uint256"
        }
      ],
      "name": "increaseAllowance",
      "outputs": [
        {
          "internalType": "bool",
          "name": "",
          "type": "bool"
        }
      ],
      "stateMutability": "nonpayable",
      "type": "function"
    },
    {
      "inputs": [],
      "name": "mint",
      "outputs": [],
      "stateMutability": "payable",
      "type": "function"
    },
    {
      "inputs": [],
      "name": "name",
      "outputs": [
        {
          "internalType": "string",
          "name": "",
          "type": "string"
        }
      ],
      "stateMutability": "view",
      "type": "function"
    },
    {
      "inputs": [],
      "name": "symbol",
      "outputs": [
        {
          "internalType": "string",
          "name": "",
          "type": "string"
        }
      ],
      "stateMutability": "view",
      "type": "function"
    },
    {
      "inputs": [],
      "name": "totalSupply",
      "outputs": [
        {
          "internalType": "uint256",
          "name": "",
          "type": "uint256"
        }
      ],
      "stateMutability": "view",
      "type": "function"
    },
    {
      "inputs": [
        {
          "internalType": "address",
          "name": "recipient",
          "type": "address"
        },
        {
          "internalType": "uint256",
          "name": "amount",
          "type": "uint256"
        }
      ],
      "name": "transfer",
      "outputs": [
        {
          "internalType": "bool",
          "name": "",
          "type": "bool"
        }
      ],
      "stateMutability": "nonpayable",
      "type": "function"
    },
    {
      "inputs": [
        {
          "internalType": "address",
          "name": "sender",
          "type": "address"
        },
        {
          "internalType": "address",
          "name": "recipient",
          "type": "address"
        },
        {
          "internalType": "uint256",
          "name": "amount",
          "type": "uint256"
        }
      ],
      "name": "transferFrom",
      "outputs": [
        {
          "internalType": "bool",
          "name": "",
          "type": "bool"
        }
      ],
      "stateMutability": "nonpayable",
      "type": "function"
    }
  ],
  "bytecode": "0x60806040523480156200001157600080fd5b506040516200228d3803806200228d833981810160405281019062000037919062000197565b818181600390805190602001906200005192919062000075565b5080600490805190602001906200006a92919062000075565b50505050506200033b565b8280546200008390620002a7565b90600052602060002090601f016020900481019282620000a75760008555620000f3565b82601f10620000c257805160ff1916838001178555620000f3565b82800160010185558215620000f3579182015b82811115620000f2578251825591602001919060010190620000d5565b5b50905062000102919062000106565b5090565b5b808211156200012157600081600090555060010162000107565b5090565b60006200013c62000136846200023e565b6200020a565b9050828152602081018484840111156200015557600080fd5b6200016284828562000271565b509392505050565b600082601f8301126200017c57600080fd5b81516200018e84826020860162000125565b91505092915050565b60008060408385031215620001ab57600080fd5b600083015167ffffffffffffffff811115620001c657600080fd5b620001d4858286016200016a565b925050602083015167ffffffffffffffff811115620001f257600080fd5b62000200858286016200016a565b9150509250929050565b6000604051905081810181811067ffffffffffffffff821117156200023457620002336200030c565b5b8060405250919050565b600067ffffffffffffffff8211156200025c576200025b6200030c565b5b601f19601f8301169050602081019050919050565b60005b838110156200029157808201518184015260208101905062000274565b83811115620002a1576000848401525b50505050565b60006002820490506001821680620002c057607f821691505b60208210811415620002d757620002d6620002dd565b5b50919050565b7f4e487b7100000000000000000000000000000000000000000000000000000000600052602260045260246000fd5b7f4e487b7100000000000000000000000000000000000000000000000000000000600052604160045260246000fd5b611f42806200034b6000396000f3fe6080604052600436106100dd5760003560e01c806342966c681161007f578063a457c2d711610059578063a457c2d7146102b5578063a9059cbb146102f2578063bfe350f61461032f578063dd62ed3e1461035a576100dd565b806342966c681461022457806370a082311461024d57806395d89b411461028a576100dd565b806318160ddd116100bb57806318160ddd1461015457806323b872dd1461017f578063313ce567146101bc57806339509351146101e7576100dd565b806306fdde03146100e2578063095ea7b31461010d5780631249c58b1461014a575b600080fd5b3480156100ee57600080fd5b506100f7610397565b6040516101049190611a32565b60405180910390f35b34801561011957600080fd5b50610134600480360381019061012f91906113f8565b610429565b6040516101419190611a17565b60405180910390f35b610152610447565b005b34801561016057600080fd5b506101696104fa565b6040516101769190611c14565b60405180910390f35b34801561018b57600080fd5b506101a660048036038101906101a191906113a9565b610504565b6040516101b39190611a17565b60405180910390f35b3480156101c857600080fd5b506101d16105fc565b6040516101de9190611c2f565b60405180910390f35b3480156101f357600080fd5b5061020e600480360381019061020991906113f8565b610605565b60405161021b9190611a17565b60405180910390f35b34801561023057600080fd5b5061024b60048036038101906102469190611434565b6106b1565b005b34801561025957600080fd5b50610274600480360381019061026f9190611344565b6108d2565b6040516102819190611c14565b60405180910390f35b34801561029657600080fd5b5061029f61091a565b6040516102ac9190611a32565b60405180910390f35b3480156102c157600080fd5b506102dc60048036038101906102d791906113f8565b6109ac565b6040516102e99190611a17565b60405180910390f35b3480156102fe57600080fd5b50610319600480360381019061031491906113f8565b610a97565b6040516103269190611a17565b60405180910390f35b34801561033b57600080fd5b50610344610ab5565b6040516103519190611c14565b60405180910390f35b34801561036657600080fd5b50610381600480360381019061037c919061136d565b610abd565b60405161038e9190611c14565b60405180910390f35b6060600380546103a690611e0e565b80601f01602080910402602001604051908101604052809291908181526020018280546103d290611e0e565b801561041f5780601f106103f45761010080835404028352916020019161041f565b820191906000526020600020905b81548152906001019060200180831161040257829003601f168201915b5050505050905090565b600061043d610436610b44565b8484610b4c565b6001905092915050565b662386f26fc10000341015610491576040517f08c379a000000000000000000000000000000000000000000000000000000000815260040161048890611b54565b60405180910390fd5b60006104a7606434610d1790919063ffffffff16565b90506104b33382610d2d565b803373ffffffffffffffffffffffffffffffffffffffff167f37f00d5aecf66d6426dc34fa05570b78428a9057d592103f104cb6ab257ceec060405160405180910390a350565b6000600254905090565b6000610511848484610e8d565b6000600160008673ffffffffffffffffffffffffffffffffffffffff1673ffffffffffffffffffffffffffffffffffffffff168152602001908152602001600020600061055c610b44565b73ffffffffffffffffffffffffffffffffffffffff1673ffffffffffffffffffffffffffffffffffffffff168152602001908152602001600020549050828110156105dc576040517f08c379a00000000000000000000000000000000000000000000000000000000081526004016105d390611b14565b60405180910390fd5b6105f0856105e8610b44565b858403610b4c565b60019150509392505050565b60006012905090565b60006106a7610612610b44565b848460016000610620610b44565b73ffffffffffffffffffffffffffffffffffffffff1673ffffffffffffffffffffffffffffffffffffffff16815260200190815260200160002060008873ffffffffffffffffffffffffffffffffffffffff1673ffffffffffffffffffffffffffffffffffffffff168152602001908152602001600020546106a29190611c71565b610b4c565b6001905092915050565b60648110156106f5576040517f08c379a00000000000000000000000000000000000000000000000000000000081526004016106ec90611b34565b60405180910390fd5b600061070b60648361110e90919063ffffffff16565b90503073ffffffffffffffffffffffffffffffffffffffff1663bfe350f66040518163ffffffff1660e01b815260040160206040518083038186803b15801561075357600080fd5b505afa158015610767573d6000803e3d6000fd5b505050506040513d601f19601f8201168201806040525081019061078b919061145d565b8111156107cd576040517f08c379a00000000000000000000000000000000000000000000000000000000081526004016107c490611a74565b60405180910390fd5b6107d73383611124565b60003373ffffffffffffffffffffffffffffffffffffffff1682620186a09060405161080290611a02565b600060405180830381858888f193505050503d8060008114610840576040519150601f19603f3d011682016040523d82523d6000602084013e610845565b606091505b5050905080610889576040517f08c379a000000000000000000000000000000000000000000000000000000000815260040161088090611af4565b60405180910390fd5b823373ffffffffffffffffffffffffffffffffffffffff167f98424910d9ce64f7585a8c35553e1afb52df575d68ffae1e9918dbf34d115a6860405160405180910390a3505050565b60008060008373ffffffffffffffffffffffffffffffffffffffff1673ffffffffffffffffffffffffffffffffffffffff168152602001908152602001600020549050919050565b60606004805461092990611e0e565b80601f016020809104026020016040519081016040528092919081815260200182805461095590611e0e565b80156109a25780601f10610977576101008083540402835291602001916109a2565b820191906000526020600020905b81548152906001019060200180831161098557829003601f168201915b5050505050905090565b600080600160006109bb610b44565b73ffffffffffffffffffffffffffffffffffffffff1673ffffffffffffffffffffffffffffffffffffffff16815260200190815260200160002060008573ffffffffffffffffffffffffffffffffffffffff1673ffffffffffffffffffffffffffffffffffffffff16815260200190815260200160002054905082811015610a78576040517f08c379a0000000000000000000000000000000000000000000000000000000008152600401610a6f90611bd4565b60405180910390fd5b610a8c610a83610b44565b85858403610b4c565b600191505092915050565b6000610aab610aa4610b44565b8484610e8d565b6001905092915050565b600047905090565b6000600160008473ffffffffffffffffffffffffffffffffffffffff1673ffffffffffffffffffffffffffffffffffffffff16815260200190815260200160002060008373ffffffffffffffffffffffffffffffffffffffff1673ffffffffffffffffffffffffffffffffffffffff16815260200190815260200160002054905092915050565b600033905090565b600073ffffffffffffffffffffffffffffffffffffffff168373ffffffffffffffffffffffffffffffffffffffff161415610bbc576040517f08c379a0000000000000000000000000000000000000000000000000000000008152600401610bb390611bb4565b60405180910390fd5b600073ffffffffffffffffffffffffffffffffffffffff168273ffffffffffffffffffffffffffffffffffffffff161415610c2c576040517f08c379a0000000000000000000000000000000000000000000000000000000008152600401610c2390611ab4565b60405180910390fd5b80600160008573ffffffffffffffffffffffffffffffffffffffff1673ffffffffffffffffffffffffffffffffffffffff16815260200190815260200160002060008473ffffffffffffffffffffffffffffffffffffffff1673ffffffffffffffffffffffffffffffffffffffff168152602001908152602001600020819055508173ffffffffffffffffffffffffffffffffffffffff168373ffffffffffffffffffffffffffffffffffffffff167f8c5be1e5ebec7d5bd14f71427d1e84f3dd0314c0f7b2291e5b200ac8c7c3b92583604051610d0a9190611c14565b60405180910390a3505050565b60008183610d259190611cf8565b905092915050565b600073ffffffffffffffffffffffffffffffffffffffff168273ffffffffffffffffffffffffffffffffffffffff161415610d9d576040517f08c379a0000000000000000000000000000000000000000000000000000000008152600401610d9490611bf4565b60405180910390fd5b610da9600083836112fb565b8060026000828254610dbb9190611c71565b92505081905550806000808473ffffffffffffffffffffffffffffffffffffffff1673ffffffffffffffffffffffffffffffffffffffff1681526020019081526020016000206000828254610e109190611c71565b925050819055508173ffffffffffffffffffffffffffffffffffffffff16600073ffffffffffffffffffffffffffffffffffffffff167fddf252ad1be2c89b69c2b068fc378daa952ba7f163c4a11628f55a4df523b3ef83604051610e759190611c14565b60405180910390a3610e8960008383611300565b5050565b600073ffffffffffffffffffffffffffffffffffffffff168373ffffffffffffffffffffffffffffffffffffffff161415610efd576040517f08c379a0000000000000000000000000000000000000000000000000000000008152600401610ef490611b94565b60405180910390fd5b600073ffffffffffffffffffffffffffffffffffffffff168273ffffffffffffffffffffffffffffffffffffffff161415610f6d576040517f08c379a0000000000000000000000000000000000000000000000000000000008152600401610f6490611a54565b60405180910390fd5b610f788383836112fb565b60008060008573ffffffffffffffffffffffffffffffffffffffff1673ffffffffffffffffffffffffffffffffffffffff16815260200190815260200160002054905081811015610ffe576040517f08c379a0000000000000000000000000000000000000000000000000000000008152600401610ff590611ad4565b60405180910390fd5b8181036000808673ffffffffffffffffffffffffffffffffffffffff1673ffffffffffffffffffffffffffffffffffffffff16815260200190815260200160002081905550816000808573ffffffffffffffffffffffffffffffffffffffff1673ffffffffffffffffffffffffffffffffffffffff16815260200190815260200160002060008282546110919190611c71565b925050819055508273ffffffffffffffffffffffffffffffffffffffff168473ffffffffffffffffffffffffffffffffffffffff167fddf252ad1be2c89b69c2b068fc378daa952ba7f163c4a11628f55a4df523b3ef846040516110f59190611c14565b60405180910390a3611108848484611300565b50505050565b6000818361111c9190611cc7565b905092915050565b600073ffffffffffffffffffffffffffffffffffffffff168273ffffffffffffffffffffffffffffffffffffffff161415611194576040517f08c379a000000000000000000000000000000000000000000000000000000000815260040161118b90611b74565b60405180910390fd5b6111a0826000836112fb565b60008060008473ffffffffffffffffffffffffffffffffffffffff1673ffffffffffffffffffffffffffffffffffffffff16815260200190815260200160002054905081811015611226576040517f08c379a000000000000000000000000000000000000000000000000000000000815260040161121d90611a94565b60405180910390fd5b8181036000808573ffffffffffffffffffffffffffffffffffffffff1673ffffffffffffffffffffffffffffffffffffffff16815260200190815260200160002081905550816002600082825461127d9190611d52565b92505081905550600073ffffffffffffffffffffffffffffffffffffffff168373ffffffffffffffffffffffffffffffffffffffff167fddf252ad1be2c89b69c2b068fc378daa952ba7f163c4a11628f55a4df523b3ef846040516112e29190611c14565b60405180910390a36112f683600084611300565b505050565b505050565b505050565b60008135905061131481611ede565b92915050565b60008135905061132981611ef5565b92915050565b60008151905061133e81611ef5565b92915050565b60006020828403121561135657600080fd5b600061136484828501611305565b91505092915050565b6000806040838503121561138057600080fd5b600061138e85828601611305565b925050602061139f85828601611305565b9150509250929050565b6000806000606084860312156113be57600080fd5b60006113cc86828701611305565b93505060206113dd86828701611305565b92505060406113ee8682870161131a565b9150509250925092565b6000806040838503121561140b57600080fd5b600061141985828601611305565b925050602061142a8582860161131a565b9150509250929050565b60006020828403121561144657600080fd5b60006114548482850161131a565b91505092915050565b60006020828403121561146f57600080fd5b600061147d8482850161132f565b91505092915050565b61148f81611d98565b82525050565b60006114a082611c4a565b6114aa8185611c60565b93506114ba818560208601611ddb565b6114c381611ecd565b840191505092915050565b60006114db602383611c60565b91507f45524332303a207472616e7366657220746f20746865207a65726f206164647260008301527f65737300000000000000000000000000000000000000000000000000000000006020830152604082019050919050565b6000611541602383611c60565b91507f436f6e747261637420646f6573206e6f74206861766520656e6f75676820455460008301527f48455200000000000000000000000000000000000000000000000000000000006020830152604082019050919050565b60006115a7602283611c60565b91507f45524332303a206275726e20616d6f756e7420657863656564732062616c616e60008301527f63650000000000000000000000000000000000000000000000000000000000006020830152604082019050919050565b600061160d602283611c60565b91507f45524332303a20617070726f766520746f20746865207a65726f20616464726560008301527f73730000000000000000000000000000000000000000000000000000000000006020830152604082019050919050565b6000611673602683611c60565b91507f45524332303a207472616e7366657220616d6f756e742065786365656473206260008301527f616c616e636500000000000000000000000000000000000000000000000000006020830152604082019050919050565b60006116d9601483611c60565b91507f4661696c656420746f2073656e642045746865720000000000000000000000006000830152602082019050919050565b6000611719602883611c60565b91507f45524332303a207472616e7366657220616d6f756e742065786365656473206160008301527f6c6c6f77616e63650000000000000000000000000000000000000000000000006020830152604082019050919050565b600061177f601f83611c60565b91507f4d696e696d756d206f66203120776569206e65656420746f206275726e6564006000830152602082019050919050565b60006117bf601e83611c60565b91507f4d696e696d756d20657468657220726571756972656420697320302e303100006000830152602082019050919050565b60006117ff602183611c60565b91507f45524332303a206275726e2066726f6d20746865207a65726f2061646472657360008301527f73000000000000000000000000000000000000000000000000000000000000006020830152604082019050919050565b6000611865602583611c60565b91507f45524332303a207472616e736665722066726f6d20746865207a65726f20616460008301527f64726573730000000000000000000000000000000000000000000000000000006020830152604082019050919050565b60006118cb600083611c55565b9150600082019050919050565b60006118e5602483611c60565b91507f45524332303a20617070726f76652066726f6d20746865207a65726f2061646460008301527f72657373000000000000000000000000000000000000000000000000000000006020830152604082019050919050565b600061194b602583611c60565b91507f45524332303a2064656372656173656420616c6c6f77616e63652062656c6f7760008301527f207a65726f0000000000000000000000000000000000000000000000000000006020830152604082019050919050565b60006119b1601f83611c60565b91507f45524332303a206d696e7420746f20746865207a65726f2061646472657373006000830152602082019050919050565b6119ed81611dc4565b82525050565b6119fc81611dce565b82525050565b6000611a0d826118be565b9150819050919050565b6000602082019050611a2c6000830184611486565b92915050565b60006020820190508181036000830152611a4c8184611495565b905092915050565b60006020820190508181036000830152611a6d816114ce565b9050919050565b60006020820190508181036000830152611a8d81611534565b9050919050565b60006020820190508181036000830152611aad8161159a565b9050919050565b60006020820190508181036000830152611acd81611600565b9050919050565b60006020820190508181036000830152611aed81611666565b9050919050565b60006020820190508181036000830152611b0d816116cc565b9050919050565b60006020820190508181036000830152611b2d8161170c565b9050919050565b60006020820190508181036000830152611b4d81611772565b9050919050565b60006020820190508181036000830152611b6d816117b2565b9050919050565b60006020820190508181036000830152611b8d816117f2565b9050919050565b60006020820190508181036000830152611bad81611858565b9050919050565b60006020820190508181036000830152611bcd816118d8565b9050919050565b60006020820190508181036000830152611bed8161193e565b9050919050565b60006020820190508181036000830152611c0d816119a4565b9050919050565b6000602082019050611c2960008301846119e4565b92915050565b6000602082019050611c4460008301846119f3565b92915050565b600081519050919050565b600081905092915050565b600082825260208201905092915050565b6000611c7c82611dc4565b9150611c8783611dc4565b9250827fffffffffffffffffffffffffffffffffffffffffffffffffffffffffffffffff03821115611cbc57611cbb611e40565b5b828201905092915050565b6000611cd282611dc4565b9150611cdd83611dc4565b925082611ced57611cec611e6f565b5b828204905092915050565b6000611d0382611dc4565b9150611d0e83611dc4565b9250817fffffffffffffffffffffffffffffffffffffffffffffffffffffffffffffffff0483118215151615611d4757611d46611e40565b5b828202905092915050565b6000611d5d82611dc4565b9150611d6883611dc4565b925082821015611d7b57611d7a611e40565b5b828203905092915050565b6000611d9182611da4565b9050919050565b60008115159050919050565b600073ffffffffffffffffffffffffffffffffffffffff82169050919050565b6000819050919050565b600060ff82169050919050565b60005b83811015611df9578082015181840152602081019050611dde565b83811115611e08576000848401525b50505050565b60006002820490506001821680611e2657607f821691505b60208210811415611e3a57611e39611e9e565b5b50919050565b7f4e487b7100000000000000000000000000000000000000000000000000000000600052601160045260246000fd5b7f4e487b7100000000000000000000000000000000000000000000000000000000600052601260045260246000fd5b7f4e487b7100000000000000000000000000000000000000000000000000000000600052602260045260246000fd5b6000601f19601f8301169050919050565b611ee781611d86565b8114611ef257600080fd5b50565b611efe81611dc4565b8114611f0957600080fd5b5056fea2646970667358221220da1ee8cc1bd4df44726c420ca179a57d3942b35e6e2de7834766315711806bc764736f6c63430008000033",
  "linkReferences": {},
  "deployedLinkReferences": {}
}