{
  "_format": "hh-sol-artifact-1",
  "contractName": "Streaming",
  "sourceName": "contracts/Streaming.sol",
  "abi": [
    {
      "inputs": [],
      "stateMutability": "nonpayable",
      "type": "constructor"
    },
    {
      "anonymous": false,
      "inputs": [
        {
          "indexed": true,
          "internalType": "uint256",
          "name": "streamId",
          "type": "uint256"
        },
        {
          "indexed": true,
          "internalType": "address",
          "name": "sender",
          "type": "address"
        },
        {
          "indexed": true,
          "internalType": "address",
          "name": "recipient",
          "type": "address"
        },
        {
          "indexed": false,
          "internalType": "uint256",
          "name": "senderBalance",
          "type": "uint256"
        },
        {
          "indexed": false,
          "internalType": "uint256",
          "name": "recipientBalance",
          "type": "uint256"
        }
      ],
      "name": "CancelStream",
      "type": "event"
    },
    {
      "anonymous": false,
      "inputs": [
        {
          "indexed": true,
          "internalType": "uint256",
          "name": "streamId",
          "type": "uint256"
        },
        {
          "indexed": true,
          "internalType": "address",
          "name": "sender",
          "type": "address"
        },
        {
          "indexed": true,
          "internalType": "address",
          "name": "recipient",
          "type": "address"
        },
        {
          "indexed": false,
          "internalType": "uint256",
          "name": "deposit",
          "type": "uint256"
        },
        {
          "indexed": false,
          "internalType": "address",
          "name": "tokenAddress",
          "type": "address"
        },
        {
          "indexed": false,
          "internalType": "uint256",
          "name": "startTime",
          "type": "uint256"
        },
        {
          "indexed": false,
          "internalType": "uint256",
          "name": "stopTime",
          "type": "uint256"
        }
      ],
      "name": "CreateStream",
      "type": "event"
    },
    {
      "anonymous": false,
      "inputs": [
        {
          "indexed": true,
          "internalType": "uint256",
          "name": "streamId",
          "type": "uint256"
        },
        {
          "indexed": true,
          "internalType": "address",
          "name": "recipient",
          "type": "address"
        },
        {
          "indexed": false,
          "internalType": "uint256",
          "name": "amount",
          "type": "uint256"
        }
      ],
      "name": "WithdrawFromStream",
      "type": "event"
    },
    {
      "inputs": [
        {
          "internalType": "uint256",
          "name": "streamId",
          "type": "uint256"
        },
        {
          "internalType": "address",
          "name": "who",
          "type": "address"
        }
      ],
      "name": "balanceOf",
      "outputs": [
        {
          "internalType": "uint256",
          "name": "balance",
          "type": "uint256"
        }
      ],
      "stateMutability": "view",
      "type": "function"
    },
    {
      "inputs": [
        {
          "internalType": "uint256",
          "name": "streamId",
          "type": "uint256"
        }
      ],
      "name": "cancelStream",
      "outputs": [],
      "stateMutability": "nonpayable",
      "type": "function"
    },
    {
      "inputs": [
        {
          "internalType": "address",
          "name": "recipient",
          "type": "address"
        },
        {
          "internalType": "uint256",
          "name": "deposit",
          "type": "uint256"
        },
        {
          "internalType": "address",
          "name": "tokenAddress",
          "type": "address"
        },
        {
          "internalType": "uint256",
          "name": "startTime",
          "type": "uint256"
        },
        {
          "internalType": "uint256",
          "name": "stopTime",
          "type": "uint256"
        }
      ],
      "name": "createStream",
      "outputs": [
        {
          "internalType": "uint256",
          "name": "streamId",
          "type": "uint256"
        }
      ],
      "stateMutability": "nonpayable",
      "type": "function"
    },
    {
      "inputs": [
        {
          "internalType": "uint256",
          "name": "streamId",
          "type": "uint256"
        }
      ],
      "name": "elapsedTimeFor",
      "outputs": [
        {
          "internalType": "uint256",
          "name": "delta",
          "type": "uint256"
        }
      ],
      "stateMutability": "view",
      "type": "function"
    },
    {
      "inputs": [],
      "name": "streamIdCounter",
      "outputs": [
        {
          "internalType": "uint256",
          "name": "_value",
          "type": "uint256"
        }
      ],
      "stateMutability": "view",
      "type": "function"
    },
    {
      "inputs": [
        {
          "internalType": "uint256",
          "name": "streamId",
          "type": "uint256"
        },
        {
          "internalType": "uint256",
          "name": "amount",
          "type": "uint256"
        }
      ],
      "name": "withdrawFromStream",
      "outputs": [],
      "stateMutability": "nonpayable",
      "type": "function"
    }
  ],
  "bytecode": "0x608060405234801561001057600080fd5b50600160008190555061253f806100286000396000f3fe608060405234801561001057600080fd5b50600436106100625760003560e01c80633656eec2146100675780636db9241b146100975780637a9b2c6c146100b3578063cc1b4bf6146100cf578063d0cac50e146100ff578063f32fdd131461011d575b600080fd5b610081600480360381019061007c9190611a20565b61014d565b60405161008e9190611f46565b60405180910390f35b6100b160048036038101906100ac91906119f7565b61043d565b005b6100cd60048036038101906100c89190611a5c565b610a9b565b005b6100e960048036038101906100e49190611957565b6110c9565b6040516100f69190611f46565b60405180910390f35b6101076116c7565b6040516101149190611f46565b60405180910390f35b610137600480360381019061013291906119f7565b6116d3565b6040516101449190611f46565b60405180910390f35b6000826001600082815260200190815260200160002060080160009054906101000a900460ff166101b3576040517f08c379a00000000000000000000000000000000000000000000000000000000081526004016101aa90611d66565b60405180910390fd5b600060016000868152602001908152602001600020604051806101200160405290816000820160009054906101000a900473ffffffffffffffffffffffffffffffffffffffff1673ffffffffffffffffffffffffffffffffffffffff1673ffffffffffffffffffffffffffffffffffffffff1681526020016001820160009054906101000a900473ffffffffffffffffffffffffffffffffffffffff1673ffffffffffffffffffffffffffffffffffffffff1673ffffffffffffffffffffffffffffffffffffffff1681526020016002820154815260200160038201548152602001600482015481526020016005820160009054906101000a900473ffffffffffffffffffffffffffffffffffffffff1673ffffffffffffffffffffffffffffffffffffffff1673ffffffffffffffffffffffffffffffffffffffff16815260200160068201548152602001600782015481526020016008820160009054906101000a900460ff16151515158152505090506000610330866116d3565b9050600061034b8360c001518361189c90919063ffffffff16565b90508260e001518360400151146103925760006103798460e0015185604001516118b290919063ffffffff16565b905061038e81836118b290919063ffffffff16565b9150505b826000015173ffffffffffffffffffffffffffffffffffffffff168673ffffffffffffffffffffffffffffffffffffffff1614156103d557809450505050610436565b826020015173ffffffffffffffffffffffffffffffffffffffff168673ffffffffffffffffffffffffffffffffffffffff16141561042e57610424818460e001516118b290919063ffffffff16565b9450505050610436565b600094505050505b5092915050565b60026000541415610483576040517f08c379a000000000000000000000000000000000000000000000000000000000815260040161047a90611f26565b60405180910390fd5b6002600081905550806001600082815260200190815260200160002060080160009054906101000a900460ff166104ef576040517f08c379a00000000000000000000000000000000000000000000000000000000081526004016104e690611d66565b60405180910390fd5b816001600082815260200190815260200160002060010160009054906101000a900473ffffffffffffffffffffffffffffffffffffffff1673ffffffffffffffffffffffffffffffffffffffff163373ffffffffffffffffffffffffffffffffffffffff1614806105c157506001600082815260200190815260200160002060000160009054906101000a900473ffffffffffffffffffffffffffffffffffffffff1673ffffffffffffffffffffffffffffffffffffffff163373ffffffffffffffffffffffffffffffffffffffff16145b610600576040517f08c379a00000000000000000000000000000000000000000000000000000000081526004016105f790611ec6565b60405180910390fd5b600060016000858152602001908152602001600020604051806101200160405290816000820160009054906101000a900473ffffffffffffffffffffffffffffffffffffffff1673ffffffffffffffffffffffffffffffffffffffff1673ffffffffffffffffffffffffffffffffffffffff1681526020016001820160009054906101000a900473ffffffffffffffffffffffffffffffffffffffff1673ffffffffffffffffffffffffffffffffffffffff1673ffffffffffffffffffffffffffffffffffffffff1681526020016002820154815260200160038201548152602001600482015481526020016005820160009054906101000a900473ffffffffffffffffffffffffffffffffffffffff1673ffffffffffffffffffffffffffffffffffffffff1673ffffffffffffffffffffffffffffffffffffffff16815260200160068201548152602001600782015481526020016008820160009054906101000a900460ff1615151515815250509050600061078285836020015161014d565b9050600061079486846000015161014d565b905060016000878152602001908152602001600020600080820160006101000a81549073ffffffffffffffffffffffffffffffffffffffff02191690556001820160006101000a81549073ffffffffffffffffffffffffffffffffffffffff02191690556002820160009055600382016000905560048201600090556005820160006101000a81549073ffffffffffffffffffffffffffffffffffffffff0219169055600682016000905560078201600090556008820160006101000a81549060ff0219169055505060008360a0015190506000821115610940578073ffffffffffffffffffffffffffffffffffffffff1663a9059cbb8560000151846040518363ffffffff1660e01b81526004016108ae929190611d1d565b602060405180830381600087803b1580156108c857600080fd5b505af11580156108dc573d6000803e3d6000fd5b505050506040513d601f19601f8201168201806040525081019061090091906119ce565b61093f576040517f08c379a000000000000000000000000000000000000000000000000000000000815260040161093690611d46565b60405180910390fd5b5b6000831115610a1a578073ffffffffffffffffffffffffffffffffffffffff1663a9059cbb8560200151856040518363ffffffff1660e01b8152600401610988929190611d1d565b602060405180830381600087803b1580156109a257600080fd5b505af11580156109b6573d6000803e3d6000fd5b505050506040513d601f19601f820116820180604052508101906109da91906119ce565b610a19576040517f08c379a0000000000000000000000000000000000000000000000000000000008152600401610a1090611e66565b60405180910390fd5b5b836000015173ffffffffffffffffffffffffffffffffffffffff16846020015173ffffffffffffffffffffffffffffffffffffffff16887fca3e6079b726e7728802a0537949e2d1c7762304fa641fb06eb56daf2ba8c6b98686604051610a82929190611fa6565b60405180910390a4505050505050600160008190555050565b60026000541415610ae1576040517f08c379a0000000000000000000000000000000000000000000000000000000008152600401610ad890611f26565b60405180910390fd5b6002600081905550816001600082815260200190815260200160002060080160009054906101000a900460ff16610b4d576040517f08c379a0000000000000000000000000000000000000000000000000000000008152600401610b4490611d66565b60405180910390fd5b826001600082815260200190815260200160002060010160009054906101000a900473ffffffffffffffffffffffffffffffffffffffff1673ffffffffffffffffffffffffffffffffffffffff163373ffffffffffffffffffffffffffffffffffffffff161480610c1f57506001600082815260200190815260200160002060000160009054906101000a900473ffffffffffffffffffffffffffffffffffffffff1673ffffffffffffffffffffffffffffffffffffffff163373ffffffffffffffffffffffffffffffffffffffff16145b610c5e576040517f08c379a0000000000000000000000000000000000000000000000000000000008152600401610c5590611ec6565b60405180910390fd5b60008311610ca1576040517f08c379a0000000000000000000000000000000000000000000000000000000008152600401610c9890611de6565b60405180910390fd5b600060016000868152602001908152602001600020604051806101200160405290816000820160009054906101000a900473ffffffffffffffffffffffffffffffffffffffff1673ffffffffffffffffffffffffffffffffffffffff1673ffffffffffffffffffffffffffffffffffffffff1681526020016001820160009054906101000a900473ffffffffffffffffffffffffffffffffffffffff1673ffffffffffffffffffffffffffffffffffffffff1673ffffffffffffffffffffffffffffffffffffffff1681526020016002820154815260200160038201548152602001600482015481526020016005820160009054906101000a900473ffffffffffffffffffffffffffffffffffffffff1673ffffffffffffffffffffffffffffffffffffffff1673ffffffffffffffffffffffffffffffffffffffff16815260200160068201548152602001600782015481526020016008820160009054906101000a900460ff16151515158152505090506000610e2386836000015161014d565b905084811015610e68576040517f08c379a0000000000000000000000000000000000000000000000000000000008152600401610e5f90611e06565b60405180910390fd5b610e918560016000898152602001908152602001600020600701546118b290919063ffffffff16565b6001600088815260200190815260200160002060070181905550600060016000888152602001908152602001600020600701541415610f925760016000878152602001908152602001600020600080820160006101000a81549073ffffffffffffffffffffffffffffffffffffffff02191690556001820160006101000a81549073ffffffffffffffffffffffffffffffffffffffff02191690556002820160009055600382016000905560048201600090556005820160006101000a81549073ffffffffffffffffffffffffffffffffffffffff0219169055600682016000905560078201600090556008820160006101000a81549060ff021916905550505b8160a0015173ffffffffffffffffffffffffffffffffffffffff1663a9059cbb8360000151876040518363ffffffff1660e01b8152600401610fd5929190611d1d565b602060405180830381600087803b158015610fef57600080fd5b505af1158015611003573d6000803e3d6000fd5b505050506040513d601f19601f8201168201806040525081019061102791906119ce565b611066576040517f08c379a000000000000000000000000000000000000000000000000000000000815260040161105d90611ee6565b60405180910390fd5b816000015173ffffffffffffffffffffffffffffffffffffffff16867f36c3ab437e6a424ed25dc4bfdeb62706aa06558660fab2dab229d2555adaf89c876040516110b19190611f46565b60405180910390a35050505060016000819055505050565b60008073ffffffffffffffffffffffffffffffffffffffff168673ffffffffffffffffffffffffffffffffffffffff16141561113a576040517f08c379a000000000000000000000000000000000000000000000000000000000815260040161113190611e26565b60405180910390fd5b3073ffffffffffffffffffffffffffffffffffffffff168673ffffffffffffffffffffffffffffffffffffffff1614156111a9576040517f08c379a00000000000000000000000000000000000000000000000000000000081526004016111a090611f06565b60405180910390fd5b3373ffffffffffffffffffffffffffffffffffffffff168673ffffffffffffffffffffffffffffffffffffffff161415611218576040517f08c379a000000000000000000000000000000000000000000000000000000000815260040161120f90611e46565b60405180910390fd5b6000851161125b576040517f08c379a000000000000000000000000000000000000000000000000000000000815260040161125290611e86565b60405180910390fd5b4283101561129e576040517f08c379a000000000000000000000000000000000000000000000000000000000815260040161129590611d86565b60405180910390fd5b8282116112e0576040517f08c379a00000000000000000000000000000000000000000000000000000000081526004016112d790611ea6565b60405180910390fd5b60006112f584846118b290919063ffffffff16565b90508086101561133a576040517f08c379a000000000000000000000000000000000000000000000000000000000815260040161133190611da6565b60405180910390fd5b600061134f82886118c890919063ffffffff16565b1461138f576040517f08c379a000000000000000000000000000000000000000000000000000000000815260040161138690611dc6565b60405180910390fd5b61139960026118de565b60006113a560026118f4565b905060006113bc838961190290919063ffffffff16565b90506040518061012001604052808a73ffffffffffffffffffffffffffffffffffffffff1681526020013373ffffffffffffffffffffffffffffffffffffffff1681526020018981526020018781526020018681526020018873ffffffffffffffffffffffffffffffffffffffff168152602001828152602001898152602001600115158152506001600084815260200190815260200160002060008201518160000160006101000a81548173ffffffffffffffffffffffffffffffffffffffff021916908373ffffffffffffffffffffffffffffffffffffffff16021790555060208201518160010160006101000a81548173ffffffffffffffffffffffffffffffffffffffff021916908373ffffffffffffffffffffffffffffffffffffffff16021790555060408201518160020155606082015181600301556080820151816004015560a08201518160050160006101000a81548173ffffffffffffffffffffffffffffffffffffffff021916908373ffffffffffffffffffffffffffffffffffffffff16021790555060c0820151816006015560e082015181600701556101008201518160080160006101000a81548160ff0219169083151502179055509050508673ffffffffffffffffffffffffffffffffffffffff166323b872dd33308b6040518463ffffffff1660e01b81526004016115be93929190611ce6565b602060405180830381600087803b1580156115d857600080fd5b505af11580156115ec573d6000803e3d6000fd5b505050506040513d601f19601f8201168201806040525081019061161091906119ce565b61164f576040517f08c379a000000000000000000000000000000000000000000000000000000000815260040161164690611ee6565b60405180910390fd5b8873ffffffffffffffffffffffffffffffffffffffff163373ffffffffffffffffffffffffffffffffffffffff16857f7b01d409597969366dc268d7f957a990d1ca3d3449baf8fb45db67351aecfe788b8b8b8b6040516116b39493929190611f61565b60405180910390a450505095945050505050565b60028060000154905081565b60008060016000848152602001908152602001600020604051806101200160405290816000820160009054906101000a900473ffffffffffffffffffffffffffffffffffffffff1673ffffffffffffffffffffffffffffffffffffffff1673ffffffffffffffffffffffffffffffffffffffff1681526020016001820160009054906101000a900473ffffffffffffffffffffffffffffffffffffffff1673ffffffffffffffffffffffffffffffffffffffff1673ffffffffffffffffffffffffffffffffffffffff1681526020016002820154815260200160038201548152602001600482015481526020016005820160009054906101000a900473ffffffffffffffffffffffffffffffffffffffff1673ffffffffffffffffffffffffffffffffffffffff1673ffffffffffffffffffffffffffffffffffffffff16815260200160068201548152602001600782015481526020016008820160009054906101000a900460ff16151515158152505090508060600151421161185b576000915050611897565b806080015142101561187f57806060015142611877919061206b565b915050611897565b80606001518160800151611893919061206b565b9150505b919050565b600081836118aa9190612011565b905092915050565b600081836118c0919061206b565b905092915050565b600081836118d691906120e7565b905092915050565b6001816000016000828254019250508190555050565b600081600001549050919050565b600081836119109190611fe0565b905092915050565b600081359050611927816124c4565b92915050565b60008151905061193c816124db565b92915050565b600081359050611951816124f2565b92915050565b600080600080600060a0868803121561196f57600080fd5b600061197d88828901611918565b955050602061198e88828901611942565b945050604061199f88828901611918565b93505060606119b088828901611942565b92505060806119c188828901611942565b9150509295509295909350565b6000602082840312156119e057600080fd5b60006119ee8482850161192d565b91505092915050565b600060208284031215611a0957600080fd5b6000611a1784828501611942565b91505092915050565b60008060408385031215611a3357600080fd5b6000611a4185828601611942565b9250506020611a5285828601611918565b9150509250929050565b60008060408385031215611a6f57600080fd5b6000611a7d85828601611942565b9250506020611a8e85828601611942565b9150509250929050565b611aa18161209f565b82525050565b6000611ab4602083611fcf565b9150611abf82612176565b602082019050919050565b6000611ad7601583611fcf565b9150611ae28261219f565b602082019050919050565b6000611afa602183611fcf565b9150611b05826121c8565b604082019050919050565b6000611b1d601d83611fcf565b9150611b2882612217565b602082019050919050565b6000611b40602783611fcf565b9150611b4b82612240565b604082019050919050565b6000611b63600e83611fcf565b9150611b6e8261228f565b602082019050919050565b6000611b86602783611fcf565b9150611b91826122b8565b604082019050919050565b6000611ba9601a83611fcf565b9150611bb482612307565b602082019050919050565b6000611bcc601483611fcf565b9150611bd782612330565b602082019050919050565b6000611bef601d83611fcf565b9150611bfa82612359565b602082019050919050565b6000611c12602583611fcf565b9150611c1d82612382565b604082019050919050565b6000611c35601b83611fcf565b9150611c40826123d1565b602082019050919050565b6000611c58603783611fcf565b9150611c63826123fa565b604082019050919050565b6000611c7b601683611fcf565b9150611c8682612449565b602082019050919050565b6000611c9e601d83611fcf565b9150611ca982612472565b602082019050919050565b6000611cc1601f83611fcf565b9150611ccc8261249b565b602082019050919050565b611ce0816120dd565b82525050565b6000606082019050611cfb6000830186611a98565b611d086020830185611a98565b611d156040830184611cd7565b949350505050565b6000604082019050611d326000830185611a98565b611d3f6020830184611cd7565b9392505050565b60006020820190508181036000830152611d5f81611aa7565b9050919050565b60006020820190508181036000830152611d7f81611aca565b9050919050565b60006020820190508181036000830152611d9f81611aed565b9050919050565b60006020820190508181036000830152611dbf81611b10565b9050919050565b60006020820190508181036000830152611ddf81611b33565b9050919050565b60006020820190508181036000830152611dff81611b56565b9050919050565b60006020820190508181036000830152611e1f81611b79565b9050919050565b60006020820190508181036000830152611e3f81611b9c565b9050919050565b60006020820190508181036000830152611e5f81611bbf565b9050919050565b60006020820190508181036000830152611e7f81611be2565b9050919050565b60006020820190508181036000830152611e9f81611c05565b9050919050565b60006020820190508181036000830152611ebf81611c28565b9050919050565b60006020820190508181036000830152611edf81611c4b565b9050919050565b60006020820190508181036000830152611eff81611c6e565b9050919050565b60006020820190508181036000830152611f1f81611c91565b9050919050565b60006020820190508181036000830152611f3f81611cb4565b9050919050565b6000602082019050611f5b6000830184611cd7565b92915050565b6000608082019050611f766000830187611cd7565b611f836020830186611a98565b611f906040830185611cd7565b611f9d6060830184611cd7565b95945050505050565b6000604082019050611fbb6000830185611cd7565b611fc86020830184611cd7565b9392505050565b600082825260208201905092915050565b6000611feb826120dd565b9150611ff6836120dd565b92508261200657612005612147565b5b828204905092915050565b600061201c826120dd565b9150612027836120dd565b9250817fffffffffffffffffffffffffffffffffffffffffffffffffffffffffffffffff04831182151516156120605761205f612118565b5b828202905092915050565b6000612076826120dd565b9150612081836120dd565b92508282101561209457612093612118565b5b828203905092915050565b60006120aa826120bd565b9050919050565b60008115159050919050565b600073ffffffffffffffffffffffffffffffffffffffff82169050919050565b6000819050919050565b60006120f2826120dd565b91506120fd836120dd565b92508261210d5761210c612147565b5b828206905092915050565b7f4e487b7100000000000000000000000000000000000000000000000000000000600052601160045260246000fd5b7f4e487b7100000000000000000000000000000000000000000000000000000000600052601260045260246000fd5b7f526563697069656e7420746f6b656e207472616e73666572206661696c757265600082015250565b7f73747265616d20646f6573206e6f742065786973740000000000000000000000600082015250565b7f53746172742074696d65206265666f726520626c6f636b2074696d657374616d60008201527f7000000000000000000000000000000000000000000000000000000000000000602082015250565b7f4465706f73697420736d616c6c6572207468616e206475726174696f6e000000600082015250565b7f4465706f736974206973206e6f742061206d756c7469706c65206f662074696d60008201527f652064656c746100000000000000000000000000000000000000000000000000602082015250565b7f416d6f756e74206973207a65726f000000000000000000000000000000000000600082015250565b7f57697468647261776c20657863656564732074686520617661696c61626c652060008201527f62616c616e636500000000000000000000000000000000000000000000000000602082015250565b7f53747265616d20746f20746865207a65726f2061646472657373000000000000600082015250565b7f53747265616d20746f207468652063616c6c6572000000000000000000000000600082015250565b7f53656e64657220746f6b656e207472616e73666572206661696c757265000000600082015250565b7f4465706f736974206973206c6573732074686174206f7220657175616c20746f60008201527f207a65726f000000000000000000000000000000000000000000000000000000602082015250565b7f53746f702074696d65206265666f72652073746172742074696d650000000000600082015250565b7f63616c6c6572206973206e6f74207468652073656e646572206f72207468652060008201527f726563697069656e74206f66207468652073747265616d000000000000000000602082015250565b7f546f6b656e207472616e73666572206661696c75726500000000000000000000600082015250565b7f53747265616d20746f2074686520636f6e747261637420697473656c66000000600082015250565b7f5265656e7472616e637947756172643a207265656e7472616e742063616c6c00600082015250565b6124cd8161209f565b81146124d857600080fd5b50565b6124e4816120b1565b81146124ef57600080fd5b50565b6124fb816120dd565b811461250657600080fd5b5056fea264697066735822122050fa5c2b2c960b792aaa29bfc60d3d03bf4444e4aac259ffed700b3cc35d1e5e64736f6c63430008030033",
  "linkReferences": {},
  "deployedLinkReferences": {}
}