{
    "_format": "hh-sol-artifact-1",
    "contractName": "Token",
    "sourceName": "contracts/Token.sol",
    "abi": [
        {
            "inputs": [
                {
                    "internalType": "uint256",
                    "name": "initialSupply",
                    "type": "uint256"
                }
            ],
            "stateMutability": "nonpayable",
            "type": "constructor"
        },
        {
            "anonymous": false,
            "inputs": [
                {
                    "indexed": true,
                    "internalType": "address",
                    "name": "owner",
                    "type": "address"
                },
                {
                    "indexed": true,
                    "internalType": "address",
                    "name": "spender",
                    "type": "address"
                },
                {
                    "indexed": false,
                    "internalType": "uint256",
                    "name": "value",
                    "type": "uint256"
                }
            ],
            "name": "Approval",
            "type": "event"
        },
        {
            "anonymous": false,
            "inputs": [
                {
                    "indexed": true,
                    "internalType": "address",
                    "name": "from",
                    "type": "address"
                },
                {
                    "indexed": true,
                    "internalType": "address",
                    "name": "to",
                    "type": "address"
                },
                {
                    "indexed": false,
                    "internalType": "uint256",
                    "name": "value",
                    "type": "uint256"
                }
            ],
            "name": "Transfer",
            "type": "event"
        },
        {
            "inputs": [
                {
                    "internalType": "address",
                    "name": "owner",
                    "type": "address"
                },
                {
                    "internalType": "address",
                    "name": "spender",
                    "type": "address"
                }
            ],
            "name": "allowance",
            "outputs": [
                {
                    "internalType": "uint256",
                    "name": "",
                    "type": "uint256"
                }
            ],
            "stateMutability": "view",
            "type": "function"
        },
        {
            "inputs": [
                {
                    "internalType": "address",
                    "name": "spender",
                    "type": "address"
                },
                {
                    "internalType": "uint256",
                    "name": "amount",
                    "type": "uint256"
                }
            ],
            "name": "approve",
            "outputs": [
                {
                    "internalType": "bool",
                    "name": "",
                    "type": "bool"
                }
            ],
            "stateMutability": "nonpayable",
            "type": "function"
        },
        {
            "inputs": [
                {
                    "internalType": "address",
                    "name": "account",
                    "type": "address"
                }
            ],
            "name": "balanceOf",
            "outputs": [
                {
                    "internalType": "uint256",
                    "name": "",
                    "type": "uint256"
                }
            ],
            "stateMutability": "view",
            "type": "function"
        },
        {
            "inputs": [
                {
                    "internalType": "uint256",
                    "name": "_amount",
                    "type": "uint256"
                }
            ],
            "name": "buyToken",
            "outputs": [],
            "stateMutability": "payable",
            "type": "function"
        },
        {
            "inputs": [],
            "name": "decimals",
            "outputs": [
                {
                    "internalType": "uint8",
                    "name": "",
                    "type": "uint8"
                }
            ],
            "stateMutability": "view",
            "type": "function"
        },
        {
            "inputs": [
                {
                    "internalType": "address",
                    "name": "spender",
                    "type": "address"
                },
                {
                    "internalType": "uint256",
                    "name": "subtractedValue",
                    "type": "uint256"
                }
            ],
            "name": "decreaseAllowance",
            "outputs": [
                {
                    "internalType": "bool",
                    "name": "",
                    "type": "bool"
                }
            ],
            "stateMutability": "nonpayable",
            "type": "function"
        },
        {
            "inputs": [
                {
                    "internalType": "address",
                    "name": "spender",
                    "type": "address"
                },
                {
                    "internalType": "uint256",
                    "name": "addedValue",
                    "type": "uint256"
                }
            ],
            "name": "increaseAllowance",
            "outputs": [
                {
                    "internalType": "bool",
                    "name": "",
                    "type": "bool"
                }
            ],
            "stateMutability": "nonpayable",
            "type": "function"
        },
        {
            "inputs": [],
            "name": "name",
            "outputs": [
                {
                    "internalType": "string",
                    "name": "",
                    "type": "string"
                }
            ],
            "stateMutability": "view",
            "type": "function"
        },
        {
            "inputs": [],
            "name": "symbol",
            "outputs": [
                {
                    "internalType": "string",
                    "name": "",
                    "type": "string"
                }
            ],
            "stateMutability": "view",
            "type": "function"
        },
        {
            "inputs": [],
            "name": "totalSupply",
            "outputs": [
                {
                    "internalType": "uint256",
                    "name": "",
                    "type": "uint256"
                }
            ],
            "stateMutability": "view",
            "type": "function"
        },
        {
            "inputs": [
                {
                    "internalType": "address",
                    "name": "recipient",
                    "type": "address"
                },
                {
                    "internalType": "uint256",
                    "name": "amount",
                    "type": "uint256"
                }
            ],
            "name": "transfer",
            "outputs": [
                {
                    "internalType": "bool",
                    "name": "",
                    "type": "bool"
                }
            ],
            "stateMutability": "nonpayable",
            "type": "function"
        },
        {
            "inputs": [
                {
                    "internalType": "address",
                    "name": "sender",
                    "type": "address"
                },
                {
                    "internalType": "address",
                    "name": "recipient",
                    "type": "address"
                },
                {
                    "internalType": "uint256",
                    "name": "amount",
                    "type": "uint256"
                }
            ],
            "name": "transferFrom",
            "outputs": [
                {
                    "internalType": "bool",
                    "name": "",
                    "type": "bool"
                }
            ],
            "stateMutability": "nonpayable",
            "type": "function"
        }
    ],
    "bytecode": "0x6080604052620000146200014a60201b60201c565b600a62000022919062000524565b6103e862000031919062000661565b6005553480156200004157600080fd5b50604051620021003803806200210083398181016040528101906200006791906200039d565b6040518060400160405280600881526020017f496e7669637475730000000000000000000000000000000000000000000000008152506040518060400160405280600381526020017f494e5600000000000000000000000000000000000000000000000000000000008152508160039080519060200190620000eb929190620002d6565b50806004908051906020019062000104929190620002d6565b50505062000143336200011c6200014a60201b60201c565b600a6200012a919062000524565b8362000137919062000661565b6200015360201b60201c565b5062000794565b60006012905090565b600073ffffffffffffffffffffffffffffffffffffffff168273ffffffffffffffffffffffffffffffffffffffff161415620001c6576040517f08c379a0000000000000000000000000000000000000000000000000000000008152600401620001bd906200041c565b60405180910390fd5b620001da60008383620002cc60201b60201c565b8060026000828254620001ee91906200046c565b92505081905550806000808473ffffffffffffffffffffffffffffffffffffffff1673ffffffffffffffffffffffffffffffffffffffff16815260200190815260200160002060008282546200024591906200046c565b925050819055508173ffffffffffffffffffffffffffffffffffffffff16600073ffffffffffffffffffffffffffffffffffffffff167fddf252ad1be2c89b69c2b068fc378daa952ba7f163c4a11628f55a4df523b3ef83604051620002ac91906200043e565b60405180910390a3620002c860008383620002d160201b60201c565b5050565b505050565b505050565b828054620002e490620006d9565b90600052602060002090601f01602090048101928262000308576000855562000354565b82601f106200032357805160ff191683800117855562000354565b8280016001018555821562000354579182015b828111156200035357825182559160200191906001019062000336565b5b50905062000363919062000367565b5090565b5b808211156200038257600081600090555060010162000368565b5090565b60008151905062000397816200077a565b92915050565b600060208284031215620003b057600080fd5b6000620003c08482850162000386565b91505092915050565b6000620003d8601f836200045b565b91507f45524332303a206d696e7420746f20746865207a65726f2061646472657373006000830152602082019050919050565b6200041681620006c2565b82525050565b600060208201905081810360008301526200043781620003c9565b9050919050565b60006020820190506200045560008301846200040b565b92915050565b600082825260208201905092915050565b60006200047982620006c2565b91506200048683620006c2565b9250827fffffffffffffffffffffffffffffffffffffffffffffffffffffffffffffffff03821115620004be57620004bd6200070f565b5b828201905092915050565b6000808291508390505b60018511156200051b57808604811115620004f357620004f26200070f565b5b6001851615620005035780820291505b808102905062000513856200076d565b9450620004d3565b94509492505050565b60006200053182620006c2565b91506200053e83620006cc565b92506200056d7fffffffffffffffffffffffffffffffffffffffffffffffffffffffffffffffff848462000575565b905092915050565b6000826200058757600190506200065a565b816200059757600090506200065a565b8160018114620005b05760028114620005bb57620005f1565b60019150506200065a565b60ff841115620005d057620005cf6200070f565b5b8360020a915084821115620005ea57620005e96200070f565b5b506200065a565b5060208310610133831016604e8410600b84101617156200062b5782820a9050838111156200062557620006246200070f565b5b6200065a565b6200063a8484846001620004c9565b925090508184048111156200065457620006536200070f565b5b81810290505b9392505050565b60006200066e82620006c2565b91506200067b83620006c2565b9250817fffffffffffffffffffffffffffffffffffffffffffffffffffffffffffffffff0483118215151615620006b757620006b66200070f565b5b828202905092915050565b6000819050919050565b600060ff82169050919050565b60006002820490506001821680620006f257607f821691505b602082108114156200070957620007086200073e565b5b50919050565b7f4e487b7100000000000000000000000000000000000000000000000000000000600052601160045260246000fd5b7f4e487b7100000000000000000000000000000000000000000000000000000000600052602260045260246000fd5b60008160011c9050919050565b6200078581620006c2565b81146200079157600080fd5b50565b61195c80620007a46000396000f3fe6080604052600436106100a75760003560e01c8063395093511161006457806339509351146101c357806370a082311461020057806395d89b411461023d578063a457c2d714610268578063a9059cbb146102a5578063dd62ed3e146102e2576100a7565b806306fdde03146100ac578063095ea7b3146100d757806318160ddd1461011457806323b872dd1461013f5780632d296bf11461017c578063313ce56714610198575b600080fd5b3480156100b857600080fd5b506100c161031f565b6040516100ce91906113ed565b60405180910390f35b3480156100e357600080fd5b506100fe60048036038101906100f99190610f57565b6103b1565b60405161010b91906113d2565b60405180910390f35b34801561012057600080fd5b506101296103cf565b604051610136919061154f565b60405180910390f35b34801561014b57600080fd5b5061016660048036038101906101619190610f08565b6103d9565b60405161017391906113d2565b60405180910390f35b61019660048036038101906101919190610f93565b6104d1565b005b3480156101a457600080fd5b506101ad61059c565b6040516101ba919061156a565b60405180910390f35b3480156101cf57600080fd5b506101ea60048036038101906101e59190610f57565b6105a5565b6040516101f791906113d2565b60405180910390f35b34801561020c57600080fd5b5061022760048036038101906102229190610ea3565b610651565b604051610234919061154f565b60405180910390f35b34801561024957600080fd5b50610252610699565b60405161025f91906113ed565b60405180910390f35b34801561027457600080fd5b5061028f600480360381019061028a9190610f57565b61072b565b60405161029c91906113d2565b60405180910390f35b3480156102b157600080fd5b506102cc60048036038101906102c79190610f57565b610816565b6040516102d991906113d2565b60405180910390f35b3480156102ee57600080fd5b5061030960048036038101906103049190610ecc565b610834565b604051610316919061154f565b60405180910390f35b60606003805461032e9061184a565b80601f016020809104026020016040519081016040528092919081815260200182805461035a9061184a565b80156103a75780601f1061037c576101008083540402835291602001916103a7565b820191906000526020600020905b81548152906001019060200180831161038a57829003601f168201915b5050505050905090565b60006103c56103be6108bb565b84846108c3565b6001905092915050565b6000600254905090565b60006103e6848484610a8e565b6000600160008673ffffffffffffffffffffffffffffffffffffffff1673ffffffffffffffffffffffffffffffffffffffff16815260200190815260200160002060006104316108bb565b73ffffffffffffffffffffffffffffffffffffffff1673ffffffffffffffffffffffffffffffffffffffff168152602001908152602001600020549050828110156104b1576040517f08c379a00000000000000000000000000000000000000000000000000000000081526004016104a89061146f565b60405180910390fd5b6104c5856104bd6108bb565b8584036108c3565b60019150509392505050565b67016345785d8a0000816104e59190611768565b3414610526576040517f08c379a000000000000000000000000000000000000000000000000000000000815260040161051d906114cf565b60405180910390fd5b6005546105316103cf565b10610571576040517f08c379a0000000000000000000000000000000000000000000000000000000008152600401610568906114ef565b60405180910390fd5b6105993361057d61059c565b600a610589919061164a565b836105949190611768565b610d0f565b50565b60006012905090565b60006106476105b26108bb565b8484600160006105c06108bb565b73ffffffffffffffffffffffffffffffffffffffff1673ffffffffffffffffffffffffffffffffffffffff16815260200190815260200160002060008873ffffffffffffffffffffffffffffffffffffffff1673ffffffffffffffffffffffffffffffffffffffff1681526020019081526020016000205461064291906115a1565b6108c3565b6001905092915050565b60008060008373ffffffffffffffffffffffffffffffffffffffff1673ffffffffffffffffffffffffffffffffffffffff168152602001908152602001600020549050919050565b6060600480546106a89061184a565b80601f01602080910402602001604051908101604052809291908181526020018280546106d49061184a565b80156107215780601f106106f657610100808354040283529160200191610721565b820191906000526020600020905b81548152906001019060200180831161070457829003601f168201915b5050505050905090565b6000806001600061073a6108bb565b73ffffffffffffffffffffffffffffffffffffffff1673ffffffffffffffffffffffffffffffffffffffff16815260200190815260200160002060008573ffffffffffffffffffffffffffffffffffffffff1673ffffffffffffffffffffffffffffffffffffffff168152602001908152602001600020549050828110156107f7576040517f08c379a00000000000000000000000000000000000000000000000000000000081526004016107ee9061150f565b60405180910390fd5b61080b6108026108bb565b858584036108c3565b600191505092915050565b600061082a6108236108bb565b8484610a8e565b6001905092915050565b6000600160008473ffffffffffffffffffffffffffffffffffffffff1673ffffffffffffffffffffffffffffffffffffffff16815260200190815260200160002060008373ffffffffffffffffffffffffffffffffffffffff1673ffffffffffffffffffffffffffffffffffffffff16815260200190815260200160002054905092915050565b600033905090565b600073ffffffffffffffffffffffffffffffffffffffff168373ffffffffffffffffffffffffffffffffffffffff161415610933576040517f08c379a000000000000000000000000000000000000000000000000000000000815260040161092a906114af565b60405180910390fd5b600073ffffffffffffffffffffffffffffffffffffffff168273ffffffffffffffffffffffffffffffffffffffff1614156109a3576040517f08c379a000000000000000000000000000000000000000000000000000000000815260040161099a9061142f565b60405180910390fd5b80600160008573ffffffffffffffffffffffffffffffffffffffff1673ffffffffffffffffffffffffffffffffffffffff16815260200190815260200160002060008473ffffffffffffffffffffffffffffffffffffffff1673ffffffffffffffffffffffffffffffffffffffff168152602001908152602001600020819055508173ffffffffffffffffffffffffffffffffffffffff168373ffffffffffffffffffffffffffffffffffffffff167f8c5be1e5ebec7d5bd14f71427d1e84f3dd0314c0f7b2291e5b200ac8c7c3b92583604051610a81919061154f565b60405180910390a3505050565b600073ffffffffffffffffffffffffffffffffffffffff168373ffffffffffffffffffffffffffffffffffffffff161415610afe576040517f08c379a0000000000000000000000000000000000000000000000000000000008152600401610af59061148f565b60405180910390fd5b600073ffffffffffffffffffffffffffffffffffffffff168273ffffffffffffffffffffffffffffffffffffffff161415610b6e576040517f08c379a0000000000000000000000000000000000000000000000000000000008152600401610b659061140f565b60405180910390fd5b610b79838383610e6f565b60008060008573ffffffffffffffffffffffffffffffffffffffff1673ffffffffffffffffffffffffffffffffffffffff16815260200190815260200160002054905081811015610bff576040517f08c379a0000000000000000000000000000000000000000000000000000000008152600401610bf69061144f565b60405180910390fd5b8181036000808673ffffffffffffffffffffffffffffffffffffffff1673ffffffffffffffffffffffffffffffffffffffff16815260200190815260200160002081905550816000808573ffffffffffffffffffffffffffffffffffffffff1673ffffffffffffffffffffffffffffffffffffffff1681526020019081526020016000206000828254610c9291906115a1565b925050819055508273ffffffffffffffffffffffffffffffffffffffff168473ffffffffffffffffffffffffffffffffffffffff167fddf252ad1be2c89b69c2b068fc378daa952ba7f163c4a11628f55a4df523b3ef84604051610cf6919061154f565b60405180910390a3610d09848484610e74565b50505050565b600073ffffffffffffffffffffffffffffffffffffffff168273ffffffffffffffffffffffffffffffffffffffff161415610d7f576040517f08c379a0000000000000000000000000000000000000000000000000000000008152600401610d769061152f565b60405180910390fd5b610d8b60008383610e6f565b8060026000828254610d9d91906115a1565b92505081905550806000808473ffffffffffffffffffffffffffffffffffffffff1673ffffffffffffffffffffffffffffffffffffffff1681526020019081526020016000206000828254610df291906115a1565b925050819055508173ffffffffffffffffffffffffffffffffffffffff16600073ffffffffffffffffffffffffffffffffffffffff167fddf252ad1be2c89b69c2b068fc378daa952ba7f163c4a11628f55a4df523b3ef83604051610e57919061154f565b60405180910390a3610e6b60008383610e74565b5050565b505050565b505050565b600081359050610e88816118f8565b92915050565b600081359050610e9d8161190f565b92915050565b600060208284031215610eb557600080fd5b6000610ec384828501610e79565b91505092915050565b60008060408385031215610edf57600080fd5b6000610eed85828601610e79565b9250506020610efe85828601610e79565b9150509250929050565b600080600060608486031215610f1d57600080fd5b6000610f2b86828701610e79565b9350506020610f3c86828701610e79565b9250506040610f4d86828701610e8e565b9150509250925092565b60008060408385031215610f6a57600080fd5b6000610f7885828601610e79565b9250506020610f8985828601610e8e565b9150509250929050565b600060208284031215610fa557600080fd5b6000610fb384828501610e8e565b91505092915050565b610fc5816117d4565b82525050565b6000610fd682611585565b610fe08185611590565b9350610ff0818560208601611817565b610ff9816118da565b840191505092915050565b6000611011602383611590565b91507f45524332303a207472616e7366657220746f20746865207a65726f206164647260008301527f65737300000000000000000000000000000000000000000000000000000000006020830152604082019050919050565b6000611077602283611590565b91507f45524332303a20617070726f766520746f20746865207a65726f20616464726560008301527f73730000000000000000000000000000000000000000000000000000000000006020830152604082019050919050565b60006110dd602683611590565b91507f45524332303a207472616e7366657220616d6f756e742065786365656473206260008301527f616c616e636500000000000000000000000000000000000000000000000000006020830152604082019050919050565b6000611143602883611590565b91507f45524332303a207472616e7366657220616d6f756e742065786365656473206160008301527f6c6c6f77616e63650000000000000000000000000000000000000000000000006020830152604082019050919050565b60006111a9602583611590565b91507f45524332303a207472616e736665722066726f6d20746865207a65726f20616460008301527f64726573730000000000000000000000000000000000000000000000000000006020830152604082019050919050565b600061120f602483611590565b91507f45524332303a20617070726f76652066726f6d20746865207a65726f2061646460008301527f72657373000000000000000000000000000000000000000000000000000000006020830152604082019050919050565b6000611275602383611590565b91507f506c656173652073656e642073756666696369656e7420657468657220616d6f60008301527f756e7400000000000000000000000000000000000000000000000000000000006020830152604082019050919050565b60006112db601e83611590565b91507f416c6c20746f6b656e732068617665206265656e2065786861757374656400006000830152602082019050919050565b600061131b602583611590565b91507f45524332303a2064656372656173656420616c6c6f77616e63652062656c6f7760008301527f207a65726f0000000000000000000000000000000000000000000000000000006020830152604082019050919050565b6000611381601f83611590565b91507f45524332303a206d696e7420746f20746865207a65726f2061646472657373006000830152602082019050919050565b6113bd81611800565b82525050565b6113cc8161180a565b82525050565b60006020820190506113e76000830184610fbc565b92915050565b600060208201905081810360008301526114078184610fcb565b905092915050565b6000602082019050818103600083015261142881611004565b9050919050565b600060208201905081810360008301526114488161106a565b9050919050565b60006020820190508181036000830152611468816110d0565b9050919050565b6000602082019050818103600083015261148881611136565b9050919050565b600060208201905081810360008301526114a88161119c565b9050919050565b600060208201905081810360008301526114c881611202565b9050919050565b600060208201905081810360008301526114e881611268565b9050919050565b60006020820190508181036000830152611508816112ce565b9050919050565b600060208201905081810360008301526115288161130e565b9050919050565b6000602082019050818103600083015261154881611374565b9050919050565b600060208201905061156460008301846113b4565b92915050565b600060208201905061157f60008301846113c3565b92915050565b600081519050919050565b600082825260208201905092915050565b60006115ac82611800565b91506115b783611800565b9250827fffffffffffffffffffffffffffffffffffffffffffffffffffffffffffffffff038211156115ec576115eb61187c565b5b828201905092915050565b6000808291508390505b60018511156116415780860481111561161d5761161c61187c565b5b600185161561162c5780820291505b808102905061163a856118eb565b9450611601565b94509492505050565b600061165582611800565b91506116608361180a565b925061168d7fffffffffffffffffffffffffffffffffffffffffffffffffffffffffffffffff8484611695565b905092915050565b6000826116a55760019050611761565b816116b35760009050611761565b81600181146116c957600281146116d357611702565b6001915050611761565b60ff8411156116e5576116e461187c565b5b8360020a9150848211156116fc576116fb61187c565b5b50611761565b5060208310610133831016604e8410600b84101617156117375782820a9050838111156117325761173161187c565b5b611761565b61174484848460016115f7565b9250905081840481111561175b5761175a61187c565b5b81810290505b9392505050565b600061177382611800565b915061177e83611800565b9250817fffffffffffffffffffffffffffffffffffffffffffffffffffffffffffffffff04831182151516156117b7576117b661187c565b5b828202905092915050565b60006117cd826117e0565b9050919050565b60008115159050919050565b600073ffffffffffffffffffffffffffffffffffffffff82169050919050565b6000819050919050565b600060ff82169050919050565b60005b8381101561183557808201518184015260208101905061181a565b83811115611844576000848401525b50505050565b6000600282049050600182168061186257607f821691505b60208210811415611876576118756118ab565b5b50919050565b7f4e487b7100000000000000000000000000000000000000000000000000000000600052601160045260246000fd5b7f4e487b7100000000000000000000000000000000000000000000000000000000600052602260045260246000fd5b6000601f19601f8301169050919050565b60008160011c9050919050565b611901816117c2565b811461190c57600080fd5b50565b61191881611800565b811461192357600080fd5b5056fea2646970667358221220d0912187966ffbc87b36e2f964df33a374d6fab2e303e1b41e8487e4f50ce53164736f6c63430008000033",
    "linkReferences": {},
    "deployedLinkReferences": {}
}