{
  "_format": "hh-sol-artifact-1",
  "contractName": "VotingContract",
  "sourceName": "contracts/VotingContract.sol",
  "abi": [
    {
      "inputs": [
        {
          "internalType": "contract SolveToken",
          "name": "_solveToken",
          "type": "address"
        }
      ],
      "stateMutability": "nonpayable",
      "type": "constructor"
    },
    {
      "anonymous": false,
      "inputs": [
        {
          "indexed": true,
          "internalType": "uint256",
          "name": "ideaID",
          "type": "uint256"
        },
        {
          "indexed": true,
          "internalType": "address",
          "name": "owner",
          "type": "address"
        }
      ],
      "name": "IdeaCreated",
      "type": "event"
    },
    {
      "anonymous": false,
      "inputs": [
        {
          "indexed": true,
          "internalType": "uint256",
          "name": "ideaID",
          "type": "uint256"
        },
        {
          "indexed": true,
          "internalType": "address",
          "name": "owner",
          "type": "address"
        },
        {
          "indexed": true,
          "internalType": "uint256",
          "name": "amount",
          "type": "uint256"
        }
      ],
      "name": "RewardsClaimed",
      "type": "event"
    },
    {
      "anonymous": false,
      "inputs": [
        {
          "indexed": true,
          "internalType": "uint256",
          "name": "ideaID",
          "type": "uint256"
        },
        {
          "indexed": true,
          "internalType": "address",
          "name": "user",
          "type": "address"
        }
      ],
      "name": "UserVoted",
      "type": "event"
    },
    {
      "inputs": [
        {
          "internalType": "uint256",
          "name": "ideaID",
          "type": "uint256"
        }
      ],
      "name": "claimFunds",
      "outputs": [],
      "stateMutability": "nonpayable",
      "type": "function"
    },
    {
      "inputs": [],
      "name": "getTotalIdeas",
      "outputs": [
        {
          "internalType": "uint256",
          "name": "",
          "type": "uint256"
        }
      ],
      "stateMutability": "view",
      "type": "function"
    },
    {
      "inputs": [
        {
          "internalType": "address",
          "name": "",
          "type": "address"
        },
        {
          "internalType": "uint256",
          "name": "",
          "type": "uint256"
        }
      ],
      "name": "ideaIdsCreatedByAddress",
      "outputs": [
        {
          "internalType": "uint256",
          "name": "",
          "type": "uint256"
        }
      ],
      "stateMutability": "view",
      "type": "function"
    },
    {
      "inputs": [
        {
          "internalType": "address",
          "name": "",
          "type": "address"
        },
        {
          "internalType": "uint256",
          "name": "",
          "type": "uint256"
        }
      ],
      "name": "ideaIdsVotedByAddress",
      "outputs": [
        {
          "internalType": "uint256",
          "name": "",
          "type": "uint256"
        }
      ],
      "stateMutability": "view",
      "type": "function"
    },
    {
      "inputs": [
        {
          "internalType": "uint256",
          "name": "",
          "type": "uint256"
        }
      ],
      "name": "ideas",
      "outputs": [
        {
          "internalType": "address",
          "name": "owner",
          "type": "address"
        },
        {
          "internalType": "string",
          "name": "title",
          "type": "string"
        },
        {
          "internalType": "string",
          "name": "description",
          "type": "string"
        },
        {
          "internalType": "string",
          "name": "solution",
          "type": "string"
        },
        {
          "internalType": "uint256",
          "name": "requiredDonationInEthers",
          "type": "uint256"
        },
        {
          "internalType": "bool",
          "name": "hasClaimed",
          "type": "bool"
        },
        {
          "internalType": "bool",
          "name": "isFunded",
          "type": "bool"
        },
        {
          "internalType": "uint256",
          "name": "totalVotes",
          "type": "uint256"
        }
      ],
      "stateMutability": "view",
      "type": "function"
    },
    {
      "inputs": [],
      "name": "solveToken",
      "outputs": [
        {
          "internalType": "contract SolveToken",
          "name": "",
          "type": "address"
        }
      ],
      "stateMutability": "view",
      "type": "function"
    },
    {
      "inputs": [
        {
          "internalType": "address",
          "name": "_owner",
          "type": "address"
        },
        {
          "internalType": "string",
          "name": "_title",
          "type": "string"
        },
        {
          "internalType": "string",
          "name": "_description",
          "type": "string"
        },
        {
          "internalType": "string",
          "name": "_solution",
          "type": "string"
        },
        {
          "internalType": "uint256",
          "name": "_requiredDonationInEthers",
          "type": "uint256"
        }
      ],
      "name": "submitIdea",
      "outputs": [
        {
          "internalType": "uint256",
          "name": "",
          "type": "uint256"
        }
      ],
      "stateMutability": "nonpayable",
      "type": "function"
    },
    {
      "inputs": [
        {
          "internalType": "uint256",
          "name": "ideaID",
          "type": "uint256"
        }
      ],
      "name": "voteForIdea",
      "outputs": [],
      "stateMutability": "nonpayable",
      "type": "function"
    },
    {
      "stateMutability": "payable",
      "type": "receive"
    }
  ],
  "bytecode": "0x60806040523480156200001157600080fd5b5060405162001bf938038062001bf9833981810160405281019062000037919062000096565b80600160006101000a81548173ffffffffffffffffffffffffffffffffffffffff021916908373ffffffffffffffffffffffffffffffffffffffff1602179055505062000124565b60008151905062000090816200010a565b92915050565b600060208284031215620000a957600080fd5b6000620000b9848285016200007f565b91505092915050565b6000620000cf82620000ea565b9050919050565b6000620000e382620000c2565b9050919050565b600073ffffffffffffffffffffffffffffffffffffffff82169050919050565b6200011581620000d6565b81146200012157600080fd5b50565b611ac580620001346000396000f3fe60806040526004361061007f5760003560e01c8063d5e51bbd1161004e578063d5e51bbd14610160578063dd5b6a3e14610189578063e2a356d1146101c6578063eac5afa2146101f157610086565b8063115a4bac1461008b5780631b55e338146100b65780631cdb8c21146100df57806395b538371461011c57610086565b3661008657005b600080fd5b34801561009757600080fd5b506100a061022e565b6040516100ad9190611767565b60405180910390f35b3480156100c257600080fd5b506100dd60048036038101906100d891906111f0565b61023f565b005b3480156100eb57600080fd5b506101066004803603810190610101919061118b565b61068f565b6040516101139190611767565b60405180910390f35b34801561012857600080fd5b50610143600480360381019061013e91906111f0565b6106c0565b6040516101579897969594939291906115b9565b60405180910390f35b34801561016c57600080fd5b50610187600480360381019061018291906111f0565b6108da565b005b34801561019557600080fd5b506101b060048036038101906101ab919061118b565b610cc0565b6040516101bd9190611767565b60405180910390f35b3480156101d257600080fd5b506101db610cf1565b6040516101e8919061164c565b60405180910390f35b3480156101fd57600080fd5b50610218600480360381019061021391906110cc565b610d17565b6040516102259190611767565b60405180910390f35b600061023a6000610f1d565b905090565b803373ffffffffffffffffffffffffffffffffffffffff166002600083815260200190815260200160002060000160009054906101000a900473ffffffffffffffffffffffffffffffffffffffff1673ffffffffffffffffffffffffffffffffffffffff16146102e4576040517f08c379a00000000000000000000000000000000000000000000000000000000081526004016102db906116c7565b60405180910390fd5b600073ffffffffffffffffffffffffffffffffffffffff166002600084815260200190815260200160002060000160009054906101000a900473ffffffffffffffffffffffffffffffffffffffff1673ffffffffffffffffffffffffffffffffffffffff16141561038a576040517f08c379a000000000000000000000000000000000000000000000000000000000815260040161038190611727565b60405180910390fd5b600115156002600084815260200190815260200160002060050160019054906101000a900460ff161515146103f4576040517f08c379a00000000000000000000000000000000000000000000000000000000081526004016103eb906116e7565b60405180910390fd5b600015156002600084815260200190815260200160002060050160009054906101000a900460ff1615151461045e576040517f08c379a000000000000000000000000000000000000000000000000000000000815260040161045590611667565b60405180910390fd5b600060026000848152602001908152602001600020905060006104a9670de0b6b3a764000061049b60648560040154610f2b90919063ffffffff16565b610f2b90919063ffffffff16565b9050600160009054906101000a900473ffffffffffffffffffffffffffffffffffffffff1673ffffffffffffffffffffffffffffffffffffffff166342966c68826040518263ffffffff1660e01b81526004016105069190611767565b600060405180830381600087803b15801561052057600080fd5b505af1158015610534573d6000803e3d6000fd5b5050505060003373ffffffffffffffffffffffffffffffffffffffff16610570670de0b6b3a76400008560040154610f2b90919063ffffffff16565b60405161057c90611552565b60006040518083038185875af1925050503d80600081146105b9576040519150601f19603f3d011682016040523d82523d6000602084013e6105be565b606091505b5050905080610602576040517f08c379a00000000000000000000000000000000000000000000000000000000081526004016105f990611687565b60405180910390fd5b60018360050160006101000a81548160ff021916908315150217905550818360000160009054906101000a900473ffffffffffffffffffffffffffffffffffffffff1673ffffffffffffffffffffffffffffffffffffffff16867f3300bdb359cfb956935bca32e9db727413eab1ca84341f2e36caea85bb79696860405160405180910390a45050505050565b600360205281600052604060002081815481106106ab57600080fd5b90600052602060002001600091509150505481565b60026020528060005260406000206000915090508060000160009054906101000a900473ffffffffffffffffffffffffffffffffffffffff16908060010180546107099061197a565b80601f01602080910402602001604051908101604052809291908181526020018280546107359061197a565b80156107825780601f1061075757610100808354040283529160200191610782565b820191906000526020600020905b81548152906001019060200180831161076557829003601f168201915b5050505050908060020180546107979061197a565b80601f01602080910402602001604051908101604052809291908181526020018280546107c39061197a565b80156108105780601f106107e557610100808354040283529160200191610810565b820191906000526020600020905b8154815290600101906020018083116107f357829003601f168201915b5050505050908060030180546108259061197a565b80601f01602080910402602001604051908101604052809291908181526020018280546108519061197a565b801561089e5780601f106108735761010080835404028352916020019161089e565b820191906000526020600020905b81548152906001019060200180831161088157829003601f168201915b5050505050908060040154908060050160009054906101000a900460ff16908060050160019054906101000a900460ff16908060060154905088565b80600073ffffffffffffffffffffffffffffffffffffffff166002600083815260200190815260200160002060000160009054906101000a900473ffffffffffffffffffffffffffffffffffffffff1673ffffffffffffffffffffffffffffffffffffffff161415610981576040517f08c379a000000000000000000000000000000000000000000000000000000000815260040161097890611727565b60405180910390fd5b670de0b6b3a7640000600160009054906101000a900473ffffffffffffffffffffffffffffffffffffffff1673ffffffffffffffffffffffffffffffffffffffff166370a08231336040518263ffffffff1660e01b81526004016109e59190611567565b60206040518083038186803b1580156109fd57600080fd5b505afa158015610a11573d6000803e3d6000fd5b505050506040513d601f19601f82011682018060405250810190610a359190611219565b1015610a76576040517f08c379a0000000000000000000000000000000000000000000000000000000008152600401610a6d90611707565b60405180910390fd5b600015156002600084815260200190815260200160002060050160019054906101000a900460ff16151514610ae0576040517f08c379a0000000000000000000000000000000000000000000000000000000008152600401610ad790611747565b60405180910390fd5b600160009054906101000a900473ffffffffffffffffffffffffffffffffffffffff1673ffffffffffffffffffffffffffffffffffffffff166323b872dd3330670de0b6b3a76400006040518463ffffffff1660e01b8152600401610b4793929190611582565b602060405180830381600087803b158015610b6157600080fd5b505af1158015610b75573d6000803e3d6000fd5b505050506040513d601f19601f82011682018060405250810190610b9991906111c7565b506000600260008481526020019081526020016000209050610bc960018260060154610f4190919063ffffffff16565b8160060181905550600460003373ffffffffffffffffffffffffffffffffffffffff1673ffffffffffffffffffffffffffffffffffffffff168152602001908152602001600020839080600181540180825580915050600190039060005260206000200160009091909190915055610c4f60648260040154610f2b90919063ffffffff16565b816006015410610c775760018160050160016101000a81548160ff0219169083151502179055505b3373ffffffffffffffffffffffffffffffffffffffff16837fdd37da26e024ebccdf56a0979cb29e5221355bd6fa674019f2f07038fb78c33d60405160405180910390a3505050565b60046020528160005260406000208181548110610cdc57600080fd5b90600052602060002001600091509150505481565b600160009054906101000a900473ffffffffffffffffffffffffffffffffffffffff1681565b60006001821015610d5d576040517f08c379a0000000000000000000000000000000000000000000000000000000008152600401610d54906116a7565b60405180910390fd5b610d676000610f57565b6000610d736000610f1d565b905085600260008381526020019081526020016000206001019080519060200190610d9f929190610f6d565b5084600260008381526020019081526020016000206002019080519060200190610dca929190610f6d565b5083600260008381526020019081526020016000206003019080519060200190610df5929190610f6d565b50826002600083815260200190815260200160002060040181905550866002600083815260200190815260200160002060000160006101000a81548173ffffffffffffffffffffffffffffffffffffffff021916908373ffffffffffffffffffffffffffffffffffffffff160217905550600360008873ffffffffffffffffffffffffffffffffffffffff1673ffffffffffffffffffffffffffffffffffffffff1681526020019081526020016000208190806001815401808255809150506001900390600052602060002001600090919091909150558673ffffffffffffffffffffffffffffffffffffffff16817f3645a7b3a55eaca935e7d0399b738373923cfef727840c4a187a0d70dd949dea60405160405180910390a38091505095945050505050565b600081600001549050919050565b60008183610f399190611860565b905092915050565b60008183610f4f919061180a565b905092915050565b6001816000016000828254019250508190555050565b828054610f799061197a565b90600052602060002090601f016020900481019282610f9b5760008555610fe2565b82601f10610fb457805160ff1916838001178555610fe2565b82800160010185558215610fe2579182015b82811115610fe1578251825591602001919060010190610fc6565b5b509050610fef9190610ff3565b5090565b5b8082111561100c576000816000905550600101610ff4565b5090565b600061102361101e846117b3565b611782565b90508281526020810184848401111561103b57600080fd5b611046848285611938565b509392505050565b60008135905061105d81611a4a565b92915050565b60008151905061107281611a61565b92915050565b600082601f83011261108957600080fd5b8135611099848260208601611010565b91505092915050565b6000813590506110b181611a78565b92915050565b6000815190506110c681611a78565b92915050565b600080600080600060a086880312156110e457600080fd5b60006110f28882890161104e565b955050602086013567ffffffffffffffff81111561110f57600080fd5b61111b88828901611078565b945050604086013567ffffffffffffffff81111561113857600080fd5b61114488828901611078565b935050606086013567ffffffffffffffff81111561116157600080fd5b61116d88828901611078565b925050608061117e888289016110a2565b9150509295509295909350565b6000806040838503121561119e57600080fd5b60006111ac8582860161104e565b92505060206111bd858286016110a2565b9150509250929050565b6000602082840312156111d957600080fd5b60006111e784828501611063565b91505092915050565b60006020828403121561120257600080fd5b6000611210848285016110a2565b91505092915050565b60006020828403121561122b57600080fd5b6000611239848285016110b7565b91505092915050565b61124b816118ba565b82525050565b61125a816118cc565b82525050565b61126981611902565b82525050565b61127881611926565b82525050565b6000611289826117e3565b61129381856117f9565b93506112a3818560208601611947565b6112ac81611a39565b840191505092915050565b60006112c46017836117f9565b91507f46756e64696e6720616c726561647920636c61696d65640000000000000000006000830152602082019050919050565b60006113046014836117f9565b91507f4661696c656420746f2073656e642045746865720000000000000000000000006000830152602082019050919050565b60006113446034836117f9565b91507f526571756972656420446f6e6174696f6e20496e204574686572732073686f7560008301527f6c642062652067726561746572207468616e20310000000000000000000000006020830152604082019050919050565b60006113aa6021836117f9565b91507f4f6e6c79206f776e6572206f662074686520696465612063616e20616363657360008301527f73000000000000000000000000000000000000000000000000000000000000006020830152604082019050919050565b60006114106010836117f9565b91507f49646561206e6f742066756e6465642e000000000000000000000000000000006000830152602082019050919050565b60006114506026836117f9565b91507f5573657220646f6573206e6f74206861766520656e6f75676820534f4c56452060008301527f746f6b656e7300000000000000000000000000000000000000000000000000006020830152604082019050919050565b60006114b66013836117f9565b91507f4e6f2073756368206964656120657869737473000000000000000000000000006000830152602082019050919050565b60006114f66000836117ee565b9150600082019050919050565b60006115106014836117f9565b91507f4964656120616c72656164792066756e6465642e0000000000000000000000006000830152602082019050919050565b61154c816118f8565b82525050565b600061155d826114e9565b9150819050919050565b600060208201905061157c6000830184611242565b92915050565b60006060820190506115976000830186611242565b6115a46020830185611242565b6115b1604083018461126f565b949350505050565b6000610100820190506115cf600083018b611242565b81810360208301526115e1818a61127e565b905081810360408301526115f5818961127e565b90508181036060830152611609818861127e565b90506116186080830187611543565b61162560a0830186611251565b61163260c0830185611251565b61163f60e0830184611543565b9998505050505050505050565b60006020820190506116616000830184611260565b92915050565b60006020820190508181036000830152611680816112b7565b9050919050565b600060208201905081810360008301526116a0816112f7565b9050919050565b600060208201905081810360008301526116c081611337565b9050919050565b600060208201905081810360008301526116e08161139d565b9050919050565b6000602082019050818103600083015261170081611403565b9050919050565b6000602082019050818103600083015261172081611443565b9050919050565b60006020820190508181036000830152611740816114a9565b9050919050565b6000602082019050818103600083015261176081611503565b9050919050565b600060208201905061177c6000830184611543565b92915050565b6000604051905081810181811067ffffffffffffffff821117156117a9576117a8611a0a565b5b8060405250919050565b600067ffffffffffffffff8211156117ce576117cd611a0a565b5b601f19601f8301169050602081019050919050565b600081519050919050565b600081905092915050565b600082825260208201905092915050565b6000611815826118f8565b9150611820836118f8565b9250827fffffffffffffffffffffffffffffffffffffffffffffffffffffffffffffffff03821115611855576118546119ac565b5b828201905092915050565b600061186b826118f8565b9150611876836118f8565b9250817fffffffffffffffffffffffffffffffffffffffffffffffffffffffffffffffff04831182151516156118af576118ae6119ac565b5b828202905092915050565b60006118c5826118d8565b9050919050565b60008115159050919050565b600073ffffffffffffffffffffffffffffffffffffffff82169050919050565b6000819050919050565b600061190d82611914565b9050919050565b600061191f826118d8565b9050919050565b6000611931826118f8565b9050919050565b82818337600083830152505050565b60005b8381101561196557808201518184015260208101905061194a565b83811115611974576000848401525b50505050565b6000600282049050600182168061199257607f821691505b602082108114156119a6576119a56119db565b5b50919050565b7f4e487b7100000000000000000000000000000000000000000000000000000000600052601160045260246000fd5b7f4e487b7100000000000000000000000000000000000000000000000000000000600052602260045260246000fd5b7f4e487b7100000000000000000000000000000000000000000000000000000000600052604160045260246000fd5b6000601f19601f8301169050919050565b611a53816118ba565b8114611a5e57600080fd5b50565b611a6a816118cc565b8114611a7557600080fd5b50565b611a81816118f8565b8114611a8c57600080fd5b5056fea2646970667358221220ccd1246770c07f22cb94b0d722e87f830f1a91de5665425a3ebe55ee65bf373264736f6c63430008000033",
  "linkReferences": {},
  "deployedLinkReferences": {}
}