{
  "_format": "hh-sol-artifact-1",
  "contractName": "VotingContract",
  "sourceName": "contracts/VotingContract.sol",
  "abi": [
    {
      "inputs": [
        {
          "internalType": "contract IERC20",
          "name": "_solveToken",
          "type": "address"
        }
      ],
      "stateMutability": "nonpayable",
      "type": "constructor"
    },
    {
      "anonymous": false,
      "inputs": [
        {
          "indexed": true,
          "internalType": "uint256",
          "name": "ideaID",
          "type": "uint256"
        },
        {
          "indexed": true,
          "internalType": "address",
          "name": "owner",
          "type": "address"
        }
      ],
      "name": "IdeaCreated",
      "type": "event"
    },
    {
      "anonymous": false,
      "inputs": [
        {
          "indexed": true,
          "internalType": "uint256",
          "name": "ideaID",
          "type": "uint256"
        },
        {
          "indexed": true,
          "internalType": "address",
          "name": "owner",
          "type": "address"
        },
        {
          "indexed": true,
          "internalType": "uint256",
          "name": "amount",
          "type": "uint256"
        }
      ],
      "name": "RewardsClaimed",
      "type": "event"
    },
    {
      "anonymous": false,
      "inputs": [
        {
          "indexed": true,
          "internalType": "uint256",
          "name": "ideaID",
          "type": "uint256"
        },
        {
          "indexed": true,
          "internalType": "address",
          "name": "user",
          "type": "address"
        }
      ],
      "name": "UserVoted",
      "type": "event"
    },
    {
      "inputs": [
        {
          "internalType": "uint256",
          "name": "ideaID",
          "type": "uint256"
        }
      ],
      "name": "claimFunds",
      "outputs": [],
      "stateMutability": "nonpayable",
      "type": "function"
    },
    {
      "inputs": [
        {
          "internalType": "address",
          "name": "",
          "type": "address"
        },
        {
          "internalType": "uint256",
          "name": "",
          "type": "uint256"
        }
      ],
      "name": "ideaIdsCreatedByAddress",
      "outputs": [
        {
          "internalType": "uint256",
          "name": "",
          "type": "uint256"
        }
      ],
      "stateMutability": "view",
      "type": "function"
    },
    {
      "inputs": [
        {
          "internalType": "address",
          "name": "",
          "type": "address"
        },
        {
          "internalType": "uint256",
          "name": "",
          "type": "uint256"
        }
      ],
      "name": "ideaIdsVotedByAddress",
      "outputs": [
        {
          "internalType": "uint256",
          "name": "",
          "type": "uint256"
        }
      ],
      "stateMutability": "view",
      "type": "function"
    },
    {
      "inputs": [
        {
          "internalType": "uint256",
          "name": "",
          "type": "uint256"
        }
      ],
      "name": "ideas",
      "outputs": [
        {
          "internalType": "address",
          "name": "owner",
          "type": "address"
        },
        {
          "internalType": "string",
          "name": "title",
          "type": "string"
        },
        {
          "internalType": "string",
          "name": "description",
          "type": "string"
        },
        {
          "internalType": "string",
          "name": "solution",
          "type": "string"
        },
        {
          "internalType": "uint256",
          "name": "requiredDonationInEthers",
          "type": "uint256"
        },
        {
          "internalType": "bool",
          "name": "hasClaimed",
          "type": "bool"
        },
        {
          "internalType": "bool",
          "name": "isFunded",
          "type": "bool"
        },
        {
          "internalType": "uint256",
          "name": "totalVotes",
          "type": "uint256"
        }
      ],
      "stateMutability": "view",
      "type": "function"
    },
    {
      "inputs": [],
      "name": "solveToken",
      "outputs": [
        {
          "internalType": "contract IERC20",
          "name": "",
          "type": "address"
        }
      ],
      "stateMutability": "view",
      "type": "function"
    },
    {
      "inputs": [
        {
          "internalType": "address",
          "name": "_owner",
          "type": "address"
        },
        {
          "internalType": "string",
          "name": "_title",
          "type": "string"
        },
        {
          "internalType": "string",
          "name": "_description",
          "type": "string"
        },
        {
          "internalType": "string",
          "name": "_solution",
          "type": "string"
        },
        {
          "internalType": "uint256",
          "name": "_requiredDonationInEthers",
          "type": "uint256"
        }
      ],
      "name": "submitIdea",
      "outputs": [
        {
          "internalType": "uint256",
          "name": "",
          "type": "uint256"
        }
      ],
      "stateMutability": "nonpayable",
      "type": "function"
    },
    {
      "inputs": [
        {
          "internalType": "uint256",
          "name": "ideaID",
          "type": "uint256"
        }
      ],
      "name": "voteForIdea",
      "outputs": [],
      "stateMutability": "nonpayable",
      "type": "function"
    },
    {
      "stateMutability": "payable",
      "type": "receive"
    }
  ],
  "bytecode": "0x60806040523480156200001157600080fd5b5060405162001bb838038062001bb8833981810160405281019062000037919062000096565b80600160006101000a81548173ffffffffffffffffffffffffffffffffffffffff021916908373ffffffffffffffffffffffffffffffffffffffff1602179055505062000124565b60008151905062000090816200010a565b92915050565b600060208284031215620000a957600080fd5b6000620000b9848285016200007f565b91505092915050565b6000620000cf82620000ea565b9050919050565b6000620000e382620000c2565b9050919050565b600073ffffffffffffffffffffffffffffffffffffffff82169050919050565b6200011581620000d6565b81146200012157600080fd5b50565b611a8480620001346000396000f3fe6080604052600436106100745760003560e01c8063d5e51bbd1161004e578063d5e51bbd1461012a578063dd5b6a3e14610153578063e2a356d114610190578063eac5afa2146101bb5761007b565b80631b55e338146100805780631cdb8c21146100a957806395b53837146100e65761007b565b3661007b57005b600080fd5b34801561008c57600080fd5b506100a760048036038101906100a291906111af565b6101f8565b005b3480156100b557600080fd5b506100d060048036038101906100cb919061114a565b61064e565b6040516100dd9190611726565b60405180910390f35b3480156100f257600080fd5b5061010d600480360381019061010891906111af565b61067f565b604051610121989796959493929190611578565b60405180910390f35b34801561013657600080fd5b50610151600480360381019061014c91906111af565b610899565b005b34801561015f57600080fd5b5061017a6004803603810190610175919061114a565b610c7f565b6040516101879190611726565b60405180910390f35b34801561019c57600080fd5b506101a5610cb0565b6040516101b2919061160b565b60405180910390f35b3480156101c757600080fd5b506101e260048036038101906101dd919061108b565b610cd6565b6040516101ef9190611726565b60405180910390f35b803373ffffffffffffffffffffffffffffffffffffffff166002600083815260200190815260200160002060000160009054906101000a900473ffffffffffffffffffffffffffffffffffffffff1673ffffffffffffffffffffffffffffffffffffffff161461029d576040517f08c379a000000000000000000000000000000000000000000000000000000000815260040161029490611686565b60405180910390fd5b600073ffffffffffffffffffffffffffffffffffffffff166002600084815260200190815260200160002060000160009054906101000a900473ffffffffffffffffffffffffffffffffffffffff1673ffffffffffffffffffffffffffffffffffffffff161415610343576040517f08c379a000000000000000000000000000000000000000000000000000000000815260040161033a906116e6565b60405180910390fd5b600115156002600084815260200190815260200160002060050160019054906101000a900460ff161515146103ad576040517f08c379a00000000000000000000000000000000000000000000000000000000081526004016103a4906116a6565b60405180910390fd5b600015156002600084815260200190815260200160002060050160009054906101000a900460ff16151514610417576040517f08c379a000000000000000000000000000000000000000000000000000000000815260040161040e90611626565b60405180910390fd5b60006002600084815260200190815260200160002090506000610462670de0b6b3a764000061045460648560040154610edc90919063ffffffff16565b610edc90919063ffffffff16565b9050600160009054906101000a900473ffffffffffffffffffffffffffffffffffffffff1673ffffffffffffffffffffffffffffffffffffffff166342966c68826040518263ffffffff1660e01b81526004016104bf9190611726565b600060405180830381600087803b1580156104d957600080fd5b505af11580156104ed573d6000803e3d6000fd5b5050505060003373ffffffffffffffffffffffffffffffffffffffff16610529670de0b6b3a76400008560040154610edc90919063ffffffff16565b620186a09060405161053a90611511565b600060405180830381858888f193505050503d8060008114610578576040519150601f19603f3d011682016040523d82523d6000602084013e61057d565b606091505b50509050806105c1576040517f08c379a00000000000000000000000000000000000000000000000000000000081526004016105b890611646565b60405180910390fd5b60018360050160006101000a81548160ff021916908315150217905550818360000160009054906101000a900473ffffffffffffffffffffffffffffffffffffffff1673ffffffffffffffffffffffffffffffffffffffff16867f3300bdb359cfb956935bca32e9db727413eab1ca84341f2e36caea85bb79696860405160405180910390a45050505050565b6003602052816000526040600020818154811061066a57600080fd5b90600052602060002001600091509150505481565b60026020528060005260406000206000915090508060000160009054906101000a900473ffffffffffffffffffffffffffffffffffffffff16908060010180546106c890611939565b80601f01602080910402602001604051908101604052809291908181526020018280546106f490611939565b80156107415780601f1061071657610100808354040283529160200191610741565b820191906000526020600020905b81548152906001019060200180831161072457829003601f168201915b50505050509080600201805461075690611939565b80601f016020809104026020016040519081016040528092919081815260200182805461078290611939565b80156107cf5780601f106107a4576101008083540402835291602001916107cf565b820191906000526020600020905b8154815290600101906020018083116107b257829003601f168201915b5050505050908060030180546107e490611939565b80601f016020809104026020016040519081016040528092919081815260200182805461081090611939565b801561085d5780601f106108325761010080835404028352916020019161085d565b820191906000526020600020905b81548152906001019060200180831161084057829003601f168201915b5050505050908060040154908060050160009054906101000a900460ff16908060050160019054906101000a900460ff16908060060154905088565b80600073ffffffffffffffffffffffffffffffffffffffff166002600083815260200190815260200160002060000160009054906101000a900473ffffffffffffffffffffffffffffffffffffffff1673ffffffffffffffffffffffffffffffffffffffff161415610940576040517f08c379a0000000000000000000000000000000000000000000000000000000008152600401610937906116e6565b60405180910390fd5b670de0b6b3a7640000600160009054906101000a900473ffffffffffffffffffffffffffffffffffffffff1673ffffffffffffffffffffffffffffffffffffffff166370a08231336040518263ffffffff1660e01b81526004016109a49190611526565b60206040518083038186803b1580156109bc57600080fd5b505afa1580156109d0573d6000803e3d6000fd5b505050506040513d601f19601f820116820180604052508101906109f491906111d8565b1015610a35576040517f08c379a0000000000000000000000000000000000000000000000000000000008152600401610a2c906116c6565b60405180910390fd5b600015156002600084815260200190815260200160002060050160019054906101000a900460ff16151514610a9f576040517f08c379a0000000000000000000000000000000000000000000000000000000008152600401610a9690611706565b60405180910390fd5b600160009054906101000a900473ffffffffffffffffffffffffffffffffffffffff1673ffffffffffffffffffffffffffffffffffffffff166323b872dd3330670de0b6b3a76400006040518463ffffffff1660e01b8152600401610b0693929190611541565b602060405180830381600087803b158015610b2057600080fd5b505af1158015610b34573d6000803e3d6000fd5b505050506040513d601f19601f82011682018060405250810190610b589190611186565b506000600260008481526020019081526020016000209050610b8860018260060154610ef290919063ffffffff16565b8160060181905550600460003373ffffffffffffffffffffffffffffffffffffffff1673ffffffffffffffffffffffffffffffffffffffff168152602001908152602001600020839080600181540180825580915050600190039060005260206000200160009091909190915055610c0e60648260040154610edc90919063ffffffff16565b816006015410610c365760018160050160016101000a81548160ff0219169083151502179055505b3373ffffffffffffffffffffffffffffffffffffffff16837fdd37da26e024ebccdf56a0979cb29e5221355bd6fa674019f2f07038fb78c33d60405160405180910390a3505050565b60046020528160005260406000208181548110610c9b57600080fd5b90600052602060002001600091509150505481565b600160009054906101000a900473ffffffffffffffffffffffffffffffffffffffff1681565b60006001821015610d1c576040517f08c379a0000000000000000000000000000000000000000000000000000000008152600401610d1390611666565b60405180910390fd5b610d266000610f08565b6000610d326000610f1e565b905085600260008381526020019081526020016000206001019080519060200190610d5e929190610f2c565b5084600260008381526020019081526020016000206002019080519060200190610d89929190610f2c565b5083600260008381526020019081526020016000206003019080519060200190610db4929190610f2c565b50826002600083815260200190815260200160002060040181905550866002600083815260200190815260200160002060000160006101000a81548173ffffffffffffffffffffffffffffffffffffffff021916908373ffffffffffffffffffffffffffffffffffffffff160217905550600360008873ffffffffffffffffffffffffffffffffffffffff1673ffffffffffffffffffffffffffffffffffffffff1681526020019081526020016000208190806001815401808255809150506001900390600052602060002001600090919091909150558673ffffffffffffffffffffffffffffffffffffffff16817f3645a7b3a55eaca935e7d0399b738373923cfef727840c4a187a0d70dd949dea60405160405180910390a38091505095945050505050565b60008183610eea919061181f565b905092915050565b60008183610f0091906117c9565b905092915050565b6001816000016000828254019250508190555050565b600081600001549050919050565b828054610f3890611939565b90600052602060002090601f016020900481019282610f5a5760008555610fa1565b82601f10610f7357805160ff1916838001178555610fa1565b82800160010185558215610fa1579182015b82811115610fa0578251825591602001919060010190610f85565b5b509050610fae9190610fb2565b5090565b5b80821115610fcb576000816000905550600101610fb3565b5090565b6000610fe2610fdd84611772565b611741565b905082815260208101848484011115610ffa57600080fd5b6110058482856118f7565b509392505050565b60008135905061101c81611a09565b92915050565b60008151905061103181611a20565b92915050565b600082601f83011261104857600080fd5b8135611058848260208601610fcf565b91505092915050565b60008135905061107081611a37565b92915050565b60008151905061108581611a37565b92915050565b600080600080600060a086880312156110a357600080fd5b60006110b18882890161100d565b955050602086013567ffffffffffffffff8111156110ce57600080fd5b6110da88828901611037565b945050604086013567ffffffffffffffff8111156110f757600080fd5b61110388828901611037565b935050606086013567ffffffffffffffff81111561112057600080fd5b61112c88828901611037565b925050608061113d88828901611061565b9150509295509295909350565b6000806040838503121561115d57600080fd5b600061116b8582860161100d565b925050602061117c85828601611061565b9150509250929050565b60006020828403121561119857600080fd5b60006111a684828501611022565b91505092915050565b6000602082840312156111c157600080fd5b60006111cf84828501611061565b91505092915050565b6000602082840312156111ea57600080fd5b60006111f884828501611076565b91505092915050565b61120a81611879565b82525050565b6112198161188b565b82525050565b611228816118c1565b82525050565b611237816118e5565b82525050565b6000611248826117a2565b61125281856117b8565b9350611262818560208601611906565b61126b816119f8565b840191505092915050565b60006112836017836117b8565b91507f46756e64696e6720616c726561647920636c61696d65640000000000000000006000830152602082019050919050565b60006112c36014836117b8565b91507f4661696c656420746f2073656e642045746865720000000000000000000000006000830152602082019050919050565b60006113036034836117b8565b91507f526571756972656420446f6e6174696f6e20496e204574686572732073686f7560008301527f6c642062652067726561746572207468616e20310000000000000000000000006020830152604082019050919050565b60006113696021836117b8565b91507f4f6e6c79206f776e6572206f662074686520696465612063616e20616363657360008301527f73000000000000000000000000000000000000000000000000000000000000006020830152604082019050919050565b60006113cf6010836117b8565b91507f49646561206e6f742066756e6465642e000000000000000000000000000000006000830152602082019050919050565b600061140f6026836117b8565b91507f5573657220646f6573206e6f74206861766520656e6f75676820534f4c56452060008301527f746f6b656e7300000000000000000000000000000000000000000000000000006020830152604082019050919050565b60006114756013836117b8565b91507f4e6f2073756368206964656120657869737473000000000000000000000000006000830152602082019050919050565b60006114b56000836117ad565b9150600082019050919050565b60006114cf6014836117b8565b91507f4964656120616c72656164792066756e6465642e0000000000000000000000006000830152602082019050919050565b61150b816118b7565b82525050565b600061151c826114a8565b9150819050919050565b600060208201905061153b6000830184611201565b92915050565b60006060820190506115566000830186611201565b6115636020830185611201565b611570604083018461122e565b949350505050565b60006101008201905061158e600083018b611201565b81810360208301526115a0818a61123d565b905081810360408301526115b4818961123d565b905081810360608301526115c8818861123d565b90506115d76080830187611502565b6115e460a0830186611210565b6115f160c0830185611210565b6115fe60e0830184611502565b9998505050505050505050565b6000602082019050611620600083018461121f565b92915050565b6000602082019050818103600083015261163f81611276565b9050919050565b6000602082019050818103600083015261165f816112b6565b9050919050565b6000602082019050818103600083015261167f816112f6565b9050919050565b6000602082019050818103600083015261169f8161135c565b9050919050565b600060208201905081810360008301526116bf816113c2565b9050919050565b600060208201905081810360008301526116df81611402565b9050919050565b600060208201905081810360008301526116ff81611468565b9050919050565b6000602082019050818103600083015261171f816114c2565b9050919050565b600060208201905061173b6000830184611502565b92915050565b6000604051905081810181811067ffffffffffffffff82111715611768576117676119c9565b5b8060405250919050565b600067ffffffffffffffff82111561178d5761178c6119c9565b5b601f19601f8301169050602081019050919050565b600081519050919050565b600081905092915050565b600082825260208201905092915050565b60006117d4826118b7565b91506117df836118b7565b9250827fffffffffffffffffffffffffffffffffffffffffffffffffffffffffffffffff038211156118145761181361196b565b5b828201905092915050565b600061182a826118b7565b9150611835836118b7565b9250817fffffffffffffffffffffffffffffffffffffffffffffffffffffffffffffffff048311821515161561186e5761186d61196b565b5b828202905092915050565b600061188482611897565b9050919050565b60008115159050919050565b600073ffffffffffffffffffffffffffffffffffffffff82169050919050565b6000819050919050565b60006118cc826118d3565b9050919050565b60006118de82611897565b9050919050565b60006118f0826118b7565b9050919050565b82818337600083830152505050565b60005b83811015611924578082015181840152602081019050611909565b83811115611933576000848401525b50505050565b6000600282049050600182168061195157607f821691505b602082108114156119655761196461199a565b5b50919050565b7f4e487b7100000000000000000000000000000000000000000000000000000000600052601160045260246000fd5b7f4e487b7100000000000000000000000000000000000000000000000000000000600052602260045260246000fd5b7f4e487b7100000000000000000000000000000000000000000000000000000000600052604160045260246000fd5b6000601f19601f8301169050919050565b611a1281611879565b8114611a1d57600080fd5b50565b611a298161188b565b8114611a3457600080fd5b50565b611a40816118b7565b8114611a4b57600080fd5b5056fea26469706673582212208f3010fd5a46e7dbc1b153914f5f132805aab01f78e500ef26fcee04a21accbe64736f6c63430008000033",
  "linkReferences": {},
  "deployedLinkReferences": {}
}